GHRA   00014474090616250000289969
B01427101037#1156BP MINI BULB 2ct    32843 000086  000001000080039900132843
B01427101038#1157BP MINI BULB 2ct    32844 000200  000001000070039900132844
B09897400129#129 5-PIN 40-AMP RELAY  32824 000388  000001000090099900132824
B09897401520#1520 TARP STRAPS W/HOOKS32765 000134  000001000040029900132765
B01427101023#168BP MINI BULB 2ct     32840 000074  000001000050039900132840
B01427101024#194BP MINI BULB 2ct     32841 000066  000001000070039900132841
B09897402025#2025 TARP STRAPS W/HOOKS32766 000166  000001000090038900132766
B01427101045#2057BP MINI BULB 2ct    32846 000100  000001000040039900132846
B01427101052#211-2BP MINI BULB 2ct   32850 000290  000001000080049900132850
B01427101047#3057BP MINI BULB 2ct    32847 000180  000001000100049900132847
B09897403136#3136 TARP STRAPS W/HOOKS32767 000220  000001000070044900132767
B01427101050#3157NABP MINI BULB 2ct  32849 000344  000001000010079900132849
B01427101049#3157PB MINI BULB 2ct    32848 000174  000001000010049900132848
B01427101026#912BP MINI BULB 2ct     32842 000100  000001000060039900132842
B84920500777(RETURN)OLD VUSE VIBE ORI24083 008299  000005000010209900524083
B07959451002*DNB DURO WHT PAPER BG #218821 000919  000001000080091900118821
B07959451004*DNB DURO WHT PAPER BG 5018822 001179  000001000050119700118822
B04900005010*DSD* COKE ORIG 8/2LTR   27405 001499  000008000050030900827405
B04900004256*DSD* COKE ZERO 12/12OZ  26736 000599  000001000060078900126736
B04900000463*DSD* COKE, MEXICAN 24/3510959 003499  000024000010026902410959
B04900004779*DSD* COKE, MEXICAN 24/5018490 003299  000024000020026902418490
B04900005011*DSD* DIET COKE 8PK/2 LIT27403 001499  000008000040030900827403
B07800008216*DSD* DR PEPPER 12/12OZ  26732 000599  000001000030078900126732
B07832309   *DSD* DR PEPPER DIET 12/113808 000499  000001000030065900113808
B04900004784*DSD* FANTA, MEXICAN 24/310958 003499  000024000070026902410958
B04900005015*DSD* SPRITE 8/2LTR      27404 001499  000008000060030900827404
B04900004782*DSD* SPRITE, MEXICAN 24/13383 003499  000024000070026902413383
B09990069423100 GRAND CHOCO 36/1.5OZ 10142 003599  000036000070018903610142
B09990099324100 GRAND CHOCO KS 24/2.810310 003279  000024000080024902410310
B09990072278100 GRAND CHOCO S S 24/2.28071 004199  000024000050029902428071
B2100002607610FOOT IPHONE CHARG CABLE26076 002329  000010000060046901026076
B2100002607810FOOT MICRO CABLE 10CT  26078 001180  000010000030046901026078
B6875194896210FOOT TYPE C CABLE 10ct 26077 002359  000010000050046901026077
B2345678611210FT FLOOR DISPLAY ONLY  27870 003499  000001000020349900127870
B2100002586910FT/100CABLES FLOOR     25869 024900  000100000070099910025869
B2964344    11 INCH BLACK HOOK       26012 000179  000001000020017900126012
B2100002435011 INCH SILVER HOOK      24350 000089  000001000030008900124350
B014271048441157 LED 12-24v SPRWHT 2c32853 001644  000001000050279900132853
B01200500059123 CANOLA OIL 33.8oz    31642 000367  000001000060057900131642
B01200500060123 CANOLA OIL 500mL     31641 000199  000001000070032900131641
B01200577   123 VEG COOK OIL 33.8OZ  11684 000367  000001000100057900111684
B01200591   123 VEGETABLE OIL 500ML (11682 000199  000001000090032900111682
Bx2001200500123 VEGETAL OIL 500mL    31640 000199  000001000090032900131640
B8394099908712in PVC GLOVES 12PAIRS/B24616 001299  000012000040021901224616
B0288451104812V LED STRB BECN-AMBR CL32751 002758  000001000060499900132751
B0072184442818X2000 NATURES BEST FILM24420 001649  000001000030164900124420
B01427104997194 LED T3 1/4 WDG 12v BL32855 000770  000001000030139900132855
B01427104841194 LED T3 1/4 WDG 15v SP32851 000770  000001000080139900132851
B210000242632 WAY RACK STRGHT ARMS DI24263 003799  000001000080379900124263
B100000916512.5 MINI KNIFE BOX - 24PC20610 006999  000024000020054902420610
B643462880242.5INCH SMOKING PIPE 60 C23905 006299  000060000090020906023905
B000703306632021 TRADESHOW CASE B5G1F28031 028800  000300000050017930028031
B01427104842211 LED T3 1/4 44mm 15v S32852 001296  000001000050219900132852
B84110618968212 MEN NYC 1.7FL.OZ     25663 004269  000001000040853900125663
B6851419100724/7 GOLD 100 BOX        28713 004339  000010000070052401028713
B6851419100424/7 GOLD KING BOX       28718 004339  000010000060052401028718
B6851419101524/7 MENTHOL 100 BOX     28715 004339  000010000100052401028715
B6851419101924/7 MENTHOL GOLD 100 BOX28714 004339  000010000070052401028714
B6851419101224/7 MENTHOL KING BOX    28719 004339  000010000080052401028719
B6851419100324/7 RED 100 BOX         28712 004339  000010000010052401028712
B6851419100024/7 RED KING BOX        28717 004339  000010000030052401028717
B6851419101124/7 SILVER 100 BOX      28716 004339  000010000070052401028716
B047286979222-WIRE PIGTAIL           32885 000084  000001000100029900132885
B665698051012X12 CAM W/E FITTING     33089 001000  000001000100249900133089
B665698052012X12 RATCHET W/E FITTINGS33093 001133  000001000070289900133093
B665698062012X27 RATCHET ASSEMBLY    33090 002533  000001000050449900133090
B210002554103 IN 1CHARGING CABLE 10FT25541 000399  000001000060079900125541
B040000422083 MUSKETEERS BARS 36/1.9210378 004343  000036000020018903610378
B040000006033 MUSKETEERS KS 24/3.28oz10297 004591  000024000090029902410297
B602846707483 OUTLET POWER STRIP 1 FT21683 000209  000001000010051900121683
B210000262123.1A CAR ADAPTOR W/ 3IN1 26212 000469  000001000020093900126212
B210000262113.1A HOME ADAPTR W/ 3IN1 26211 000499  000001000030093900126211
B677916721603.5in CARROT EASTER EGGS 29689 000139  000001000080027900129689
B643462880233.5INC SMOKING PIPE 60ct 23904 006799  000060000040022906023904
B0391470073030 MINUTE FLARES         32746 000498  000001000080099900132746
B0756560010930 MIX BALLONS #109      18132 000079  000001000010015800118132
B70921530214305 S BLUE 100 BOX 10-20P21320 004379  000010000060053601021320
B70921530212305 S BLUE KS BOX 10-20PK21321 004379  000010000050053601021321
B70921520421305 S F/C GOLD 100 BOX 1021470 001139  000010000040018901021470
B70921520531305 S F/C MENTHOL 100 BX 21471 001139  000010000010018901021471
B70921520311305 S F/C REGULAR 100 BX 21469 001139  000010000090018901021469
B70921520210305 S F/F 100 BOX 10-20PK21318 004379  000010000090053601021318
B70921520185305 S F/F KING BOX 10-20P21319 004379  000010000010053601021319
B70921540212305 S MENTHOL 100 BOX 10-21322 004379  000010000030053601021322
B70921561532305 S MENTHOL GOLD 100BX 21326 004379  000010000010053601021326
B70921540188305 S MENTHOL KG BOX 10-221323 004379  000010000050053601021323
B70921521398305 S NON FILTER KS BX 1021327 004379  000010000060053601021327
B70921537421305 S SILVER 100 BOX 10-221324 004379  000010000010053601021324
B70921547521305 S SILVER KS  10-20PK 21325 004495  000010000060053601021325
B014271048493157 LED 10-24v WHITE 2ct32854 001644  000001000070279900132854
B0989740784531in FIFTH WHEEL PULLER  32742 001000  000001000030229900132742
B84406100051360 BLACK COLOGNE 3.4OZ  21823 001999  000001000010299900121823
B84406100954360 BLACK PERRY ELLIS MEN22432 002499  000001000030499900122432
B84406100616360 COLECTION  BY PERRY E25591 002669  000001000020533900125591
B84406100940360 CORAL FOR WOMMEN 3.4F25644 002329  000001000040465900125644
B84406100060360 PERRY ELLIS FOR MEN 125671 001550  000001000030333900125671
B84406100061360 PERRY ELLIS FOR MEN P21822 001999  000001000060299900121822
B84406100059360 PERRY ELLIS FOR WOMEN21842 002099  000001000010309900121842
B84406100055360 RED BY PERRY ELLIS FO21824 001999  000001000100299900121824
B84406100057360 RED BY PERRY ELLIS FO21843 002099  000001000080314900121843
B84406100054360 RED PERRY ELLIS FOR M25672 001669  000001000050333900125672
B44000023266360 ROTATING KNIFE DISPLA23267 005099  000001000070509900123267
B8445040031538 SPECIAL FILT CIG CHERY13021 000889  000010000030013401013021
B8445040031438 SPECIAL FILT CIG MNTHL13017 000889  000010000040013401013017
B8445040031238 SPECIAL FILT CIG ORGNL13016 000889  000010000040013401013016
B8445040061738 SPECIAL FILT CIGR LIGH13018 000889  000010000040013401013018
B8445040031638 SPECIAL FLTR CIG GRAPE13020 000849  000010000010013401013020
B210000248643FT METAL FRONT FENCE    24864 000619  000001000070061900124864
B210000255163IN1 RETRACABLE CHRG CBL 25516 002859  000010000030056901025516
B210000257533IN1 WIRELESS CHARGER IPH25753 002499  000001000030499900125753
B643462880253INCH ONEHITER SMKING PIP23906 003199  000040000060015904023906
B079567100353-IN-ONE MULTI-PURPOSE OI12238 000259  000001000010042900112238
B805319086243PC 9 BLACK THROWER IN NY20608 000779  000001000070149900120608
B210000255473PCS METAL GRINDER  EACH 25547 000399  000001000030079900125547
B210000255483PCS METAL GRINDER (COIN)25548 000269  000001000100073900125548
B098974020123WAY DBLHVYDUTY MIRROR MO32892 000938  000001000060149900132892
B047286979213-WIRE PIGTAIL           32883 000120  000001000030034900132883
B210000248654 FT FRONT METAL FENCE EA24865 000749  000001000020074900124865
B210000246104 SIDE FLOOR DISPLAY 232 24610 069900  000208000010069920824610
B440000232674 SIDE JEWLRY W/LED DISPY23268 007499  000001000100749900123268
B210000242624 WAY RACK 16 INC ARMS DI24262 004899  000001000080489900124262
B04460001712409 CLNR+VALUE PK 212 OZ 20434 001199  000001000050119900120434
B79450475751420 ODOR ELIMINATOR 1OZ/124488 002399  000012000050029901224488
B850023861334505 MEATS TAJ CHLE LMN C31675 002429  000012000070036901231675
BX123456503945MM VELCRO CAP (BLACK) E21812 000299  000001000010059900121812
B8893130734347 LICNSD MLB CAP ASTROS 30288 002400  000001000010399900130288
B1950009589147 LICNSD NFL CAP TEXANS 30554 002200  000001000090399900130554
B7632649229949ERS NFL LICENSED LANYAR27348 000399  000001000100079900127348
B210000243524FT CLEAR FRONT FENCE EAC24352 000979  000001000090097900124352
B210000243304FT PVC SHELF STRIP (BLUE24330 000025  000001000020002500124330
B210000243294FT PVC SHELF STRIP (GREE24329 000025  000001000040002500124329
B935083419904in OIL BURNER 90 CT JAR 29141 002399  000090000010006909029141
B842426165204K BLACK SWEET 15-4/1.19 30364 001129  000015000040011901530364
B842426165234K BLUBERY PNAPL 15-4/1.130359 001129  000015000030011901530359
B842426165264K DIAMOND 15-4/1.19     30356 001129  000015000020011901530356
B842426165294K FRENCH VANILA 15-4/1.130360 001129  000015000020011901530360
B842426165324K GREEN SWEET 15-4/1.19 30355 001129  000015000070011901530355
B842426165354K KIWI BERRY 15-4/1.19  30358 001129  000015000030011901530358
B842426165384K MANGO 15-4/1.19       30354 001129  000015000070011901530354
B842426165414K MELONBERRY 15-4/1.19  30362 001129  000015000050011901530362
B842426165444K NAPA GRAPE 15-4/1.19  30353 001129  000015000040011901530353
B842426180614K PINK LEMONADE 15-4/1.131265 001129  000015000010011901531265
B842426165474K SWT DELICIOUS 15-4/1.130352 001129  000015000020011901530352
B842426165504K WATERMELON 15-4/1.19  30361 001129  000015000020011901530361
B842426165534K WATRMLN GRAPE 15-4/1.130357 001129  000015000060011901530357
B842426165564K WHITE GRAPE 15-4/1.19 30363 001129  000015000020011901530363
B842426177724K WRAP DIAMOND 1-30pk   31883 002199  000001000010329900131883
B842426177844K WRAP GREEN SWEET 1-30p31882 002199  000001000030329900131882
B842426177664K WRAP NAPA GRAPE 1-30pk31884 002199  000001000100329900131884
B842426177634K WRAP SWT DELICOUS 1-3031881 002199  000001000010329900131881
B842426143994KINGS 4+1 BERRY BANANA 522751 000979  000015000100009901522751
B842426145224KINGS 4+1 BUTTER POPCON 24258 000979  000015000030009901524258
B842426145134KINGS 4+1 CHERY PINAPLE 24257 000979  000015000020009901524257
B842426144024KINGS 4+1 GOLDEN HONEY 522753 000979  000015000090009901522753
B818892018454KINGS 4+1 GREEN SWEET 5/22249 000979  000015000020009901522249
B842426145254KINGS 4+1 LEMON DROP 5/.24260 000979  000015000010009901524260
B842426145194KINGS 4+1 NAPA GRAPE 5/.24256 000979  000015000070009901524256
B842426145164KINGS 4+1 ORANGE CREAM 524259 000979  000015000090009901524259
B842426143934KINGS 4+1 PLTI-UN SWEET 22754 000979  000015000100009901522754
B842426144684KINGS 4+1 RASBERRY TEA 523756 000979  000015000050009901523756
B842426144654KINGS 4+1 SOUR APPLE 5/.23755 000979  000015000070009901523755
B842426143964KINGS 4+1 SWEET COGNAC 522752 000979  000015000080009901522752
B818892018424KINGS 4+1 SWEET DELIC 5/22248 000979  000015000010009901522248
B842426144594KINGS 4+1 VANILLA RUM  523754 000979  000015000080009901523754
B842426144624KINGS 4+1 WILD BERRY 5/.23757 000979  000015000010009901523757
B818892019764KINGS APRICOT BRANDY 4/.21416 000899  000015000090009901521416
B842426163944KINGS BLACK SWEET 15-4/029711 000959  000015000060009901529711
B818892019234KINGS BLUE P.APPLE 4/99 20985 000959  000015000090009901520985
B818892019294KINGS CRAN-APPLE 4/.99  20983 000899  000015000090009901520983
B842426151564KINGS DIAMOND 4/.99c 15C25340 000959  000015000090009901525340
B818892013524KINGS FRENCH VAN 4/.99 114943 000959  000015000080009901514943
B818892013494KINGS GRAPE 4/.99c 15CT 14939 000959  000015000090009901514939
B842426150384KINGS GREEN SWEET4/.99c 25110 000959  000015000060009901525110
B842426150474KINGS IRISH CREM 4/.99c 25109 000899  000015000050009901525109
B818892019354KINGS KIWI-BERRY 4/.99c 20981 000959  000015000040009901520981
B818892013514KINGS MANGO 4/.99c 15CT 14940 000959  000015000070009901514940
B818892017114KINGS MELON-BERRY 4/.99c15935 000959  000015000020009901515935
B842426150444KINGS PNK LEMONADE4/.99c25113 000901  000015000070009901525113
B842426150414KINGS POMEGRANATE4/.99c 25112 000899  000015000070009901525112
B818892019794KINGS PURPLE SENSATION 421417 000899  000015000020009901521417
B818892019324KINGS RED COLA 4/.99    20982 000899  000015000060009901520982
B842426150504KINGS RED VELVET4/.99c  25111 000901  000015000080009901525111
B818892015654KINGS STRAW-CHEEZCAKE 4/15921 000899  000015000020009901515921
B818892017084KINGS STRW-LEMON 4/.99c 15936 000901  000015000040009901515936
B818892013484KINGS SWEET DELCS 4/.99c14942 000959  000015000030009901514942
B818892019264KINGS ULTIMATE 4/.99    20984 000899  000015000020009901520984
B818892013504KINGS WATERMELON 4/.99c 14941 000959  000015000080009901514941
B818892018514KINGS WHITE GRAPE 4/.99c18725 000959  000015000070009901518725
B818892019384KINGS WTRMLN GRP 4/.99c 20980 000959  000015000100009901520980
B02805252   555 STATE EXPRESS GOLD KG10892 013099  000010000070154401010892
B107194109285HR 3TIER MX TEA RACK SF 24923 005499  000036000010032903624923
B719410281005HR ENGY PEACH TEA SG FRE23813 001879  000012000100029901223813
B107194109175HR ENRGY ASSORT SG FREE 16082 022989  000144000040029914416082
B719410500015HR ENRGY BERRY SG FREE 110413 002229  000012000050030901210413
B719410782005HR ENRGY CHERRY SG FREE 24269 001999  000012000010034901224269
B719410400015HR ENRGY CITRUS LM SG FR10415 001879  000012000090029901210415
B719410200015HR ENRGY GRAPE SG FREE 110414 002229  000012000040030901210414
B719410300015HR ENRGY ORANGE SG FREE 10416 001879  000012000080029901210416
B719410800015HR ENRGY POMGRNTE SG FRE10417 002229  000012000070030901210417
B107194109725HR ENRGY SG FREE DISPLAY26018 011999  000072000060029907226018
B719410707005HR ES APPLE PIE SG FREE 22010 001919  000012000080034901222010
B719410789005HR ES CL MINT LMON SG FR22658 002079  000012000040032901222658
B719410739005HR EXT HWAIAN BRZ SG FRE28954 002499  000012000080034901228954
B719410784005HR EXT ORANGE SG FREE12-25521 002459  000012000030034901225521
B719410786005HR EXT STBRY BNNA SG FRE26947 002499  000012000070034901226947
B719410700015HR EXT STR BERRY SG FREE10418 002499  000012000030034901210418
B719410760015HR EXT STR BLU RAS SG FR21166 002499  000012000070034901221166
B719410783005HR EXT STR CHERRY SG FRE25366 002079  000012000030032901225366
B719410720015HR EXT STR GRAPE SG FREE13419 002499  000012000100034901213419
B719410750015HR EXT STR PCH MGO SG FR16081 002499  000012000010034901216081
B719410071015HR EXT STR PRT+ BRY SG F21169 001499  000006000100049900621169
B719410072015HR EXT STR PRT+ GPE SG F21170 001499  000006000090049900621170
B107194109745HR EXT STR SG FREE DISP625395 012499  000072000070036907225395
B719410730015HR EXT STR SR APPL SG FR14609 002499  000012000090034901214609
B719410186005HR EXT STR TRANSFUSION 132669 002459  000012000030033801232669
B719410740015HR EXT STRW WTRMLN SG FR15371 002499  000012000080034901215371
B719410776005HR EXT TIDAL TWST SG FRE30576 002499  000012000030034901230576
B719410785005HR EXT TRPIC BRST SG FRE26075 002499  000012000090034901226075
B719410775005HR EXTRA WATRMLN SG FREE27992 002499  000012000030034901227992
B719410725005HR GAMER ULTIMATE CITRUS32671 002459  000012000080033801232671
B719410282005HR LEMON TEA SG FREE12-124899 001879  000012000010032901224899
B107194109785HR MLB 6X12CT SG FREE DI24268 011899  000072000100032907224268
B719410140115HR PINK LEMONADE SG FREE14105 001879  000012000030029901214105
B719410050015HR PROTEIN+ BERRY SG FRE21167 001399  000006000070049900621167
B719410040015HR PROTEIN+ PCH MGO SG F21168 001399  000006000060049900621168
B719410283005HR RASP TEA SG FREE 12-124898 001879  000012000100029901224898
B107194109125HR SG FREE 15 BOX 4TIER 24267 029099  000180000100028918024267
B719410991515HR SG FREE 15 BOX COMBO 27652 034629  000180000040032918027652
B107194109145HR SG FREE 15BOXES COMBO26980 029099  000180000030032918026980
B107194109415HR SG FREE 4TIER DISP 1826019 029099  000180000100029918026019
B107194109965HR SG FREE 6 BOXES 3TIER26981 012069  000072000090032907226981
B107194109175HR SG FREE 9 BOX RACK DI26982 018399  000108000080028910826982
B719410991515HR SGF 2x3TIER MXD RACK 28320 014099  000072000040032907228320
B719410987205HR SGF GETTING STUFF DON27653 012699  000072000010029907227653
B107194109785HR TEA DISPLAY SG FREE 424266 007499  000048000070029904824266
B794080233045-IN-1 CARABINER KNIFE TO31917 000588  000001000050117900131917
B794080237355MM CAN COOLER M         33019 000175  000001000100035900133019
B03415502   5TH AVE PB CHOCOLTE BAR 113972 001849  000018000030018901813972
B222154476556 IN 1 FAST CHARGER DOCK 29267 001999  000001000050362900129267
B210000243486 INCH SILVER HOOK EACH  24348 000039  000001000010003900124348
B047286831216" RED LED TAIL W/GROM & 33098 001167  000001000050269900133098
B29690      6.25in EASTER WKR BASKET 29690 000100  000001000060020000129690
B098974260126/12 VOLT CIRCUIT TESTER 32788 000322  000001000080059900132788
B000334567896FT TPE TYPE C CABLE 10CT25823 002199  000010000070043901025823
B047708713766in LONG NOSE PLIERS     32686 000732  000001000070109900132686
B100368825576in OIL BURNER 60 CT JAR 29172 002399  000090000020009909029172
B035794650646-IN-1 SCREWDRIVER       32795 000438  000001000070079900132795
B816374020757 DAY CHRY VAN MINI CROS 27026 000629  000005000020022900527026
B816374020907 DAYS CHOCOLATE CAKE BAR27088 000769  000012000060017901227088
B869380000187 DAYS CROIS PB&STWBY JLY30020 000749  000006000010022900630020
B816374020017 DAYS CROISANT P BTR/JEL21591 000749  000006000060022900621591
B816374020037 DAYS CROISANT PBTR/CHOC21592 000749  000006000050022900621592
B816374020287 DAYS CROISANT STWBY&VAN22820 000749  000006000070022900622820
B048794101027 DAYS CROISANT VANLA 6/221590 000749  000006000040022900621590
B816374020697 DAYS MINI CROISSANTS VA26334 000629  000005000050022900526334
B816374020677 DAYS MINI CRSNT CHOCO 526333 000629  000005000020022900526333
B816374020917 DAYS MIX BERRY CAKE BAR27089 000769  000008000050017900827089
B816374020597 DAYS SOFT CROSNT CARAME24916 000749  000006000030022900624916
B048794101017 DAYS SOFT CROSNT CHO 2.21589 000749  000006000100022900621589
B2100002703672 PCS AST DISPLAY       27036 018900  000072000100047907227036
B2100002539476 GAS STATION UNFRM SHIR25394 001999  000001000010199900125394
B2100002539276 GAS STATION UNIFORM SH25392 001999  000001000040199900125392
B2100002539176 GAS STATION UNIFORM SH25391 001999  000001000050199900125391
B2100002539376 GAS STATION UNIFRM SHI25393 001999  000001000050199900125393
B685810080897pc KITCHEN SET W/CASE   29692 000399  000001000080066900129692
B767203959677SHADE SUNGLASS AVIATOR A30259 000349  000001000100069900130259
B767203959717SHADE SUNGLASS FSHN PRM 30260 000349  000001000020069900130260
B767203959687SHADE SUNGLASS SPRT FULL30261 000349  000001000070069900130261
B767203959707SHADE SUNGLASS SPRT SHLD30262 000349  000001000060069900130262
B767203959697SHADE SUNGLASS TRENDY AS30263 000349  000001000060069900130263
BX12345650438 BALL SNAPBACK CAP COT (22393 000299  000001000080059900122393
B2964345    8 INCH BLACK HOOK EACH   26013 000169  000001000100016900126013
B210000243498 INCH SILVER HOOK EACH  24349 000069  000001000050006900124349
B767203960718" STEAMPUNK SP LOC FOLD 30565 000550  000001000070219900130565
B07929311   9 LIVES 4PK OCN WHTFSH 5.21100 000239  000001000080041900121100
B440000793599 LIVES CAT FOOD MEATY 4/21099 000239  000001000090041900121099
B440000793619 LIVES MEATY PATE/CHK 4/21098 000209  000004000060039900421098
B014271047309005 BRIGHTMAX CAPSULES 232836 001800  000001000060299900132836
B014271042469005 LONG LIFE CAPSULE 1p32833 000412  000001000020099900132833
B014271047319006 BRIGHTMAX CAPSULES 232837 001800  000001000070299900132837
B014271037829006 LONG LIFE CAPSULE 1p32831 000412  000001000080099900132831
B014271033719007 LONG LIFE CAPSULE 1p32828 000460  000001000040099900132828
B84001711119911 AMBR LED EMGNCY BEACO32753 001050  000001000060179900132753
B84001711116911 RED LED EMGNCY BEACON32752 001050  000001000100179900132752
B12345650383911 VELCRO CAP (BLACK) EA21796 000299  000001000100059900121796
B12345650384911 VELCRO CAP (C.CAMO) E21797 000299  000001000050059900121797
B079100002949LIVES MEAT PAT SALMO SUP20475 000239  000001000080041900120475
B079100003619LIVES MEATY PATE W/CHIKN22446 000239  000001000030041900122446
B07936612   9LIVES METY PATE CHK &TUN20477 000359  000001000020059900120477
B079100003249LIVES METY PATE CKN&TNA 29171 000105  000001000010017900129171
B079100004029LIVES METY PATE SEAFOOD 29170 000105  000001000030017900129170
B079100003679LIVES METY PATE SEFOD 4/20474 000359  000001000050059900120474
B07928613   9LIVES SPR SUPPR CT FD 4/21096 000359  000001000060059900121096
B07164378045A DREAM GIRL DOLL SET(DX-23099 000999  000001000050199900123099
B02734873575A DREAM GIRL DX-2303 DOLL24995 000999  000001000010199900124995
B02429114843A S TIRE GAUGE 100psi (E)18041 000081  000001000060013900118041
B03320014020A&H FRESHNSOFT FRSH 20SHT11954 000109  000001000070019900111954
B76326439032A&M LICENSED LANYARDS EAC25786 000399  000001000070079900125786
B05440000009A1 ORI STEAK SAUCE 5OZ EA12546 000369  000001000030059900112546
B64346287945A1 SMART WATCH ASORT COLO22800 001050  000001000100209900122800
B84349210046A3 PRO ipod EACH         26256 002999  000001000060699900126256
B64346287911AB MULTI FUNCTION BT SPEA24182 000799  000001000050159900124182
B44000023362AB WIRELESS PULSE LED SPK23362 000799  000001000070129900123362
B69548885007ABINGO S8 SPORTS EDITION 26214 001369  000001000020273900126214
B88439400852ACE 102 4 PT GRINDER WHEE25269 000499  000001000100099900125269
B62911074547ACO BODY SPRAY DIVA 6.7 O25674 000239  000001000090041900125674
B62911074547ACO BODY SPRAY FRESH 6.7 27842 000239  000001000020047900127842
B62911074547ACO COMMANDO B S 6.7OZ   26442 000239  000001000100041900126442
B62911074596ACO RANGER B S 6.7OZ     26741 000239  000001000050047900126741
B07675325898ACRY HOLDER/TOOTHPICK 20023983 000109  000001000030018900123983
B07615023216ACT II POPCON THTR BT FLV13618 000199  000001000050036900113618
B07615023213ACT II POPCRN BTRY KTL CR15537 000199  000001000020036900115537
B07615023227ACT II POPCRN BUTTER FLVR14091 000199  000001000020036900114091
B07615023248ACTII BUTR LOVR POPCORN 118310 001239  000018000010012901818310
B07615023223ACTII BUTTER POPCORN 18ct14268 001239  000018000010012901814268
B07615023249ACTII LIGHTBUTTER POPCORN14267 001239  000018000040012901814267
B07615023215ACTII POPCORN MOVIE  18/227916 001099  000018000040010901827916
B07047897000ACTION ALKALINE WATER 12-29092 001799  000012000070024901229092
B83519600253ACTION CIGAR GOLD 100 10/11791 000799  000010000090011901011791
B83519600256ACTION CIGAR MEN 100 10/211792 000799  000010000030011901011792
B83519600250ACTION CIGAR RED 100 10/211793 000799  000010000010011901011793
B09897401036ADHESIVE MIC HOLDER      32925 000074  000001000020027900132925
B36073453973ADIDAS DYNAMIC PULSE 3.4O25626 000449  000001000040089900125626
B40593263678ADIDAS FOOTBALL WORLDCUP 24129 001999  000001000100399900124129
B36073427344ADIDAS GET READY 3.5FL.OZ25625 000449  000001000090089900125625
B34122426100ADIDAS ICE DIVE 3.4L.OZ  25623 000449  000001000090089900125623
B36073453975ADIDAS PURE GAME 3.4 FL.O25628 000449  000001000070089900125628
B36073465510ADIDAS TEAM FIVE 3.4FL.OZ25624 000449  000001000040059900125624
B34122425100ADIDAS TEAM FORCE 3.4OZ  25627 000449  000001000100089900125627
B88778317627ADIDAS TEXAS A&M  SNAPBAC23918 000799  000001000060260000123918
B36073453976ADIDAS VICTORY LEAGUE 3.425629 000449  000001000020089900125629
B79408023562ADJUSTABLE PHONE MOUNT   31888 000882  000001000010176900131888
B03579451051ADJUSTABLE WRENCH 8in    32790 000639  000001000010109900132790
B03579451052ADJUSTABLE WRENCH 8in    32791 000639  000001000040139900132791
B01340002263ADOLPHUS LNG GRAIN RICE 122991 000149  000001000090024900122991
B65570801787ADVIL ALLERGY & CONG 25-113528 001299  000025000080008902513528
B65570801783ADVIL ALLERGY & CONGSN 5024131 001999  000050000020009905024131
B65570811786ADVIL BLISTER PACK 12-2CO20841 000499  000012000030010001220841
B30573016020ADVIL CAPLETS 24CT 200MG 12059 000419  000001000050069900112059
B30573020730ADVIL CHIDRN FR BUBBLE GU24040 000499  000001000080082900124040
B30573017130ADVIL CHILDREN GRAPE  LIQ13036 000499  000001000040089900113036
B30573017030ADVIL CHILDREN LIQUID FRU25513 000499  000001000050082900125513
B65570811782ADVIL CONGESTION BLISTER 20852 000679  000012000100009901220852
B30573014718ADVIL DUAL ACTION CAPLET 30854 000449  000001000070074900130854
B30573016520ADVIL GEL CAPLET 200MG/2412060 000379  000001000030063900112060
B30573019120ADVIL INFANT GRAPE 0.5oz 31021 000509  000001000090081900131021
B65570811793ADVIL LIQU BLISTER PACK 120842 000559  000012000060009901220842
B65570801785ADVIL LIQUIDGEL DISPENSER18698 001099  000030000030006903018698
B30573016920ADVIL LIQUI-GEL CAPSULE 212062 000439  000001000100073900112062
B65570821793ADVIL LIQUIGEL MULTI PACK32224 000675  000006000030028900632224
B30573016902ADVIL LIQUI-GELS 50-2PK D12971 001599  000050000030010005012971
B30573016820ADVIL MIGRAINE GEL CAP 2012063 000469  000001000060071900112063
B65570811784ADVIL PM BLISTER PACK 12-20843 000599  000012000050010001220843
B30573016420ADVIL PM CAPLETS 20CT 20012064 000499  000001000060079900112064
B30573016455ADVIL PM CAPLETS BOX 50-213758 001499  000050000090004905013758
B65570801784ADVIL PM DISPENSER 30-2 P18699 000999  000030000070012503018699
B65570821784ADVIL PM MULTI PACK 6ct  32225 000704  000006000040029900632225
B65570821786ADVIL REGULAR MULTI PACK 32223 000580  000006000080025900632223
B30573019911ADVIL SINUS CONG & PAIN 112955 000579  000001000020091900112955
B30573019901ADVIL SINUS CONGESN &PAIN24870 001929  000050000030009905024870
B09418727973ADVIL SINUS CONGS & PAIN 27696 000999  000025000020006902527696
B30573015489ADVIL TABLET 50CT DISPENS12075 001499  000050000100004905012075
B30573015110ADVIL TABLET VIAL PACK 1012058 000179  000001000070029900112058
B09418727012ADVIL TABLETS 200MG 30/2P27950 000789  000020000050004902027950
B30573015020ADVIL TABLETS 24CT 200MG 12061 000419  000001000070069900112061
B04110081127AFRIN ALERGY SINUS SPRY 112417 000769  000001000090128900112417
B65570812133AFRIN BLISTER 6ct        32267 002213  000006000020069900632267
B81555602014AFRIN NASAL SPRAY 6ML PEG28894 000329  000001000070054900128894
B04110081123AFRIN NASAL SPRAY ORG .5o21501 000759  000001000020131900121501
B04110081117AFRIN SEV CONGS NASL SPRY23642 000769  000001000090128900123642
B67293578109AIM FLOSS PICKS 50PK     14260 000119  000001000050021900114260
B67293578107AIM MINT WXD NYLON FLOS 113860 000119  000001000070024900113860
B03320000065AIM TOOTH PASTE GEL 5.5OZ16093 000129  000001000020022900116093
B03320000093AIM TOTHPASTE CAVTY PROT 20830 000119  000001000060020900120830
B07565600350AIR FOAM SPORT BALL ASST 18138 000169  000001000050032900118138
B09897412303AIR SEAT BLOW GUN KIT    32702 001162  000001000090249900132702
B67675830469AIR TIGHT BAMBOO TOP JAR 30866 000249  000001000060049900130866
B06233877002AIR WICK A/F FRESH WATER 12433 000129  000001000090021900112433
B06233885257AIR WICK A/F HAWAI 8OZ   13905 000129  000001000070021900113905
B06233895396AIR WICK A/F SNUGG LAVEND22344 000129  000001000100021900122344
B06233874734AIR WICK A/F SNUGGLE  8OZ12436 000099  000001000050019900112436
B06233805768AIR WICK A/F VANIL PASSIO12432 000129  000001000070021900112432
B06233876143AIR WICK A/F W/L ORNG BLO12437 000099  000001000070019900112437
B06233805762AIR WICK LAVENR & CHAMO 822345 000129  000001000070021900122345
B06233877897AIR WICK MAGNO CHRY BLOS 12435 000129  000001000030021900112435
B07339000934AIRHEADS 5 BARS ASST 18-223190 001869  000018000080016901823190
B07339000937AIRHEADS BARS KS 15/4.95O23598 002439  000015000020029901523598
B07339007101AIRHEADS BARS VRTY 60/0.520765 001059  000060000030003906020765
B07339001447AIRHEADS BITES FRUIT 12/318633 001239  000012000050018901218633
B07339001448AIRHEADS BITES FRUIT KS 116338 003399  000018000010029901816338
B07339001449AIRHEADS BITES ORG FRT 1218634 002199  000012000020031901218634
B07339001436AIRHEADS BITES ORG FRT 1810266 001949  000018000020016901810266
B07339001098AIRHEADS BITES PRDSE BLN 26267 002199  000012000050031901226267
B07339001100AIRHEADS BITES PRDSE BLN 26266 001949  000018000040016901826266
B07339067852AIRHEADS BITES SFT FLD 1218635 002199  000012000090031901218635
B07339000220AIRHEADS CHGMK BLRASP 36/11034 000749  000036000060003903611034
B07339000201AIRHEADS CHGMK CHRY 36/.511035 000749  000036000020003903611035
B07339001438AIRHEADS CHGMK GRAPE 36/.18632 000679  000036000040003903618632
B07339000202AIRHEADS CHGMK ORANG 36/.10439 000679  000036000030003903610439
B07339000205AIRHEADS CHGMK STWBRY 36/10024 000679  000036000050003903610024
B07339000221AIRHEADS CHGMK WHT MYS 3611036 000749  000036000040003903611036
B07339000203AIRHEADS CHGMK WTRMLN 36/11037 000749  000036000100003903611037
B07339001311AIRHEADS CHMKR SR BLU BLS32325 000779  000036000070003903632325
B07339001312AIRHEADS CHMKR SR WTMLN P32324 000779  000036000020003903632324
B07339001486AIRHEADS FILLED ROPES 12/26922 002199  000012000030031901226922
B7339001484 AIRHEADS FILLED ROPES 18/26923 001869  000018000080016901826923
B07339001333AIRHEADS GUM BLUE RASP12/22882 001249  000012000080018901222882
B07339000982AIRHEADS GUM PARADISE BLN26016 001099  000012000020016901226016
B07339001332AIRHEADS GUM WATERMELO12/22883 001249  000012000010018901222883
B07339000951AIRHEADS GUMI ORIG FRT 1229229 002079  000012000080031901229229
B07339000950AIRHEADS GUMMIES ORIG 12/24992 001239  000012000100018901224992
B07339000936AIRHEADS MINI FUSION 12/624143 001599  000012000090023901224143
B07339000897AIRHEADS MINI STRIPE 12/622896 001759  000012000050026901222896
B07339061461AIRHEADS SINGLES PEGS SOU32327 001869  000012000070025901232327
B07339061474AIRHEADS SNGL AST PEGS 1232328 001869  000012000090025901232328
B07339001090AIRHEADS SOFT FILL POUCH 30957 003279  000012000040046901230957
B07339001313AIRHEADS SOUR 5 BARS ASST32394 001949  000018000040016901832394
B07339000827AIRHEADS XT BELT BLRASP 116341 001659  000018000040016901816341
B07339061353AIRHEADS XT BELT BLRSP 1229934 001799  000012000020027901229934
B07339001061AIRHEADS XT BELT RNBRY 1221642 001869  000012000090027901221642
B07339000838AIRHEADS XT BELT RNBRY 1816342 001949  000018000060016901816342
B07339000924AIRHEADS XT BITE BLRSP 1226268 002199  000012000080031901226268
B07339000818AIRHEADS XT BITE RNBRY 1222897 002199  000012000040031901222897
B07339000903AIRHEADS XT BITE RNBRY 1816346 001949  000018000100016901816346
B07339000904AIRHEADS XT KS BITE RBRY 18553 003399  000018000080029901818553
B07339000913AIRHEADS XT SRFL RNBRY 1222898 002199  000012000030031901222898
B07339000916AIRHEADS XT SRFL RNBRY 8-22892 001449  000018000060014901822892
B06233875819AIRWICK A/F APPLE CINAMON15051 000129  000001000080021900115051
B82785400714AJAX DISHWASH LEMON 12.4o29842 000149  000001000040024900129842
B03500044668AJAX DISHWASH LIQ LEMON 114055 000149  000001000080024900114055
B82785400712AJAX DISHWASH LQD ORNG 1214103 000149  000001000080024900114103
B82785400747AJAX DISHWASH VINGR+LIME 29739 000149  000001000020024900129739
B03500005360AJAX POWDER W/BLEACH 14OZ12101 000099  000001000100019900112101
B03500044629AJAX ULTRA VINEGAR+LIME 127366 000149  000001000020024900127366
B03940170300AK EGG BITES SAUS & CHEEZ32613 000245  000001000050039900132613
B03940170400AK EGG BITES THREE CHEEZ 32614 000245  000001000070039900132614
B71751900151AL CAPONE BLUES FILTER 1029843 006909  000100000030106510029843
B71751900128AL CAPONE CIGAR SWEET 20C15934 003009  000020000010023502015934
B71751900111AL CAPONE JAMC BLZ NO FLR11154 006909  000010000040106501011154
B71751912111AL CAPONE JAMIC BLZ NON-F10844 008469  000060000080021906010844
B71751900881AL CAPONE JAMICAN BLZ FLR11153 006909  000010000090106501011153
B71751901171AL CAPONE JAMICAN BLZ FLR10843 008469  000060000090021906010843
B71751909556AL CAPONE LF WRAP ASST 3/33362 005299  000018000080249901833362
B71751909552AL CAPONE LF WRAP COGNAC 33360 005299  000018000020249901833360
B71751909550AL CAPONE LF WRAP ORIGN 333359 005299  000018000050249901833359
B71751909554AL CAPONE LF WRAP RUM 3/133361 005299  000018000030249901833361
B71751900114AL CAPONE SWEET FILTER 1011155 006909  000010000060106501011155
B71751901141AL CAPONE SWEET FILTER JA10845 008469  000060000020021906010845
B71751900110AL CAPONE SWEET NON-FILTE11190 006909  000010000010106501011190
B71751901101AL CAPONE SWEET NON-FILTE10846 008469  000060000060021906010846
B73074210478ALAMO BT DILL PCKL CHAMOY24792 002809  000012000090040901224792
B73074210360ALAMO CHAMOY PULPA 12-1.724786 001599  000012000080024901224786
B73074211202ALAMO CHAMOY WATERMELON 624772 000265  000001000060048900124772
B73074211067ALAMO CHERRY BOMB 12/2.5O24784 001599  000012000030024901224784
B73074211041ALAMO CHERRY BOMBS SWT&SR24779 000329  000001000020059900124779
B73074210880ALAMO CHILI BALL W/TAMRND24777 000349  000001000080059900124777
B73074211198ALAMO FRUTA CHLOSITO MANG24781 000349  000001000050059900124781
B73074210073ALAMO FRUTA CHLST MNGO 1224790 001599  000012000060024901224790
B73074210886ALAMO GUMI WORM BLOD CRWL24776 000349  000001000100059900124776
B73074210883ALAMO GUMI&BLODY BEAR 12-24791 001839  000012000060024901224791
B73074210888ALAMO GUMMY & BLOODY BEAR24775 000349  000001000080059900124775
B73074210285ALAMO HOT PEANUTS 4.5oz  24783 000159  000001000050028900124783
B73074210862ALAMO PICOSITAS BELTS 12-24785 001599  000012000090024901224785
B73074210948ALAMO PICOSITAS BELTS 5oz24780 000349  000001000070059900124780
B73074210950ALAMO PICOSITAS BLT CHAMO24774 000349  000001000030059900124774
B73074211200ALAMO PINEAPPLE W/CHILI 624773 000265  000001000060048900124773
B30462969026ALAMO REMEDY CBD CAPSULES26193 000249  000001000020154900126193
B30462969029ALAMO REMEDY CBD GUMMIES 26195 000249  000001000020154900126195
B30462969028ALAMO REMEDY CBD LOTION 226194 000249  000001000090154900126194
B68625910900ALAMO REMEDY CBD STARTER 26197 004499  000020000050154902026197
B30462969027ALAMO REMEDY CBD TINCTURE26196 000249  000001000030154900126196
B73074210030ALAMO SOUR BLT STRWBY 12-24788 001839  000012000070024901224788
B73074210556ALAMO SOUR PICKLE BALLS 124789 001839  000012000030024901224789
B73074211063ALAMO TAMARIND SALT W/CHL25464 000349  000001000080059900125464
B73074210630ALAMO TIRTAS PICOSITAS 5o24778 000329  000001000080059900124778
B81003051225ALANI NU CHERRY SLUSH 12-29486 002399  000012000040029901229486
B81003051002ALANI NU COSMIC STRDST 1229485 002399  000012000040029901229485
B81003051383ALANI NU ROCKET POP 12-1229484 002399  000012000080029901229484
B85064500870ALANI NU TROPSICLE 12-12o29482 002399  000012000040029901229482
B81003051048ALANI NU WATRMLN WAVE 12-29483 002399  000012000080029901229483
B81002997254ALCOHOL BREATH ANALYZER  32963 000714  000001000040099900132963
B02200002786ALERT FRUIT CAFFEINE GUM 22827 001299  000008000070029900822827
B02200002785ALERT MINT CAFFEINE GUM 822826 001299  000008000010029900822826
B32586652813ALEVE 20 LIQUI-GEL 220MG 21435 000499  000001000060089900121435
B65570811832ALEVE BLISTER PACK 12-1 C20844 000929  000012000030015001220844
B81555602050ALEVE CAPLET 20ct        30183 000879  000020000080010002030183
B32586653088ALEVE CAPLET 48CT 200MG  20762 001299  000048000080004904820762
B32586610502ALEVE CAPLETS 24CT 220MG 12143 000525  000001000060086900112143
B65570821832ALEVE MULTI PACK 6ct     32226 000700  000006000090029900632226
B02586659198ALEVE PAIN-FEVER  TAB 24C12144 000525  000001000030086900112144
B02586659188ALEVE PM CAPLETS 20CT 22015096 000699  000001000040111900115096
B65570801832ALEVE SINGLE PACK 50CT di18703 001849  000050000050007505018703
B63863243287ALIEN POWER MAL ENHSMT PI23743 004999  000024000020041902423743
B01650004019ALKA SELTZ ORIG ANTIACID 12140 000339  000001000080054900112140
B01650055534ALKA SELTZER COLD & COUGH23679 000479  000001000080079900123679
B01650053760ALKA SELTZER PLUS COLD & 16271 000579  000001000100144700116271
B01650053764ALKA SELTZER PLUS COLD PA13157 000479  000001000050081900113157
B01650055939ALKA SELTZR PLS NGHT SERV15679 000469  000001000080084900115679
B81396216902ALKALINE H2O WATER 1LTR 127548 002579  000018000090025901827548
B01650057263ALKA-SELTZER DAY & NGHT 212145 000589  000001000100101900112145
B01650056496ALKA-SELTZER DAY COLD&FLU15680 000469  000001000100084900115680
B65570801829ALKA-SELTZER ORIG 50-2pk 12196 001699  000050000100007505012196
B65570811829ALKA-SELTZER ORIGINAL BLI20845 000569  000012000040013001220845
B65570812830ALKA-SELTZER PLUS BLISTER20853 000729  000012000100012901220853
B65570802830ALKA-SELTZER PLUS CITRS 318700 001999  000030000040015003018700
B65570822830ALKA-SELTZER PLUS MULTI P32236 001050  000006000050039900632236
B01650055944ALKA-SELTZER PLUS SEVERE 15711 000459  000001000080099900115711
B65570821829ALKA-SELTZER REG MULTI PA32242 000626  000006000010027900632242
B87965599523ALL IN ONE 4FT CHARGING C25515 000369  000001000100073900125515
B21000025540ALL IN ONE CHARGING CABLE25540 000379  000001000100075900125540
B21000025814ALL IN ONE FAST CHRG CABL25814 001869  000010000070037901025814
B02429115908ALL PURPOSE BALL TIP HAIR21913 000139  000001000100024900121913
B67697980371ALL PURPOSE LATEX GLOVE M20492 000169  000001000090028900120492
B22512      ALL WINSTON (ITG AUTOZD)R22512 005934  000010000080070901022512
B04116741200ALLEGRA ALLERGY RELIEF 5C26605 000599  000001000040099900126605
B65570811920ALLEGRA SINGLE PACK 12ct 32243 001575  000012000070029901232243
B82927451420ALLEY CAT FOD CHK &TUNA 321101 000289  000001000090047900121101
B03452202   ALMOND JOY KS 18/3.22OZ  10283 003199  000018000050029901810283
B03432004   ALMOND JOY STD 36/1.61OZ 10166 003679  000036000080018903610166
B08707621238ALMOND RAW 6/2.75oz      23441 001379  000006000050041900623441
B08707641238ALMOND RAW SV 6/4oz      14517 002049  000006000050062900614517
B02900007541ALMONDS SMOKED 18/1.5oz  22267 002299  000018000100022901822267
B76700010907ALMONDS WHOLE NATURAL 3oz33227 000113  000001000020018800133227
B65195038414ALOE LOVE LIME 12/16.9OZ 23381 001874  000012000050028901223381
B65195038416ALOE LOVE MANGO 12-16.9oz27518 001699  000012000100023901227518
B65195038420ALOE LOVE ORIGINAL 12-16.27519 001699  000012000040023901227519
B65195038422ALOE LOVE PINEAPLE 12-16.27520 001699  000012000100023901227520
B65195038424ALOE LOVE STRWBERY 12-16.23383 001699  000012000040023901223383
B65195038426ALOE LOVE WATERMLN 12-16.27521 001699  000012000070023901227521
B85000191902ALOE VERA FRESH COCONUT 126083 001999  000020000010023902026083
B85000191904ALOE VERA FRESH MANGO 20/26085 002799  000020000020023902026085
B85000191900ALOE VERA FRESH ORG 20/1626084 002799  000020000070023902026084
B85000191919ALOE VERA FRSH PINEAPE 2029358 002799  000020000080023902029358
B85000191906ALOE VERA FRSH WTRMLN 20/26086 002799  000020000080023902026086
B01113211755ALPO CHOP 13.2OZ RIBEYE C11621 000089  000001000090014900111621
B01113211767ALPO CHP HSE FILET MIGNON21126 000139  000001000090024900121126
B01113216861ALPO PRIME CUT BEEF GRAVY27579 000109  000001000090019900127579
B01113216865ALPO PRIME CUT CHKN VEGI 27576 000109  000001000080019900127576
B01113216867ALPO PRIME CUT LAMB&RICE 27577 000109  000001000070019900127577
B01113216869ALPO PRIME CUT TURKY VEGI27578 000109  000001000080019900127578
B01113216857ALPO T BONE STEAK GRAVY 127575 000109  000001000010019900127575
B01113200681ALPO VARIETY SNAPS LITTLE21129 000189  000001000030031900121129
B02299501   ALTOIDS MINT ARCTIC STRWB21028 001449  000008000100029900821028
B02276908   ALTOIDS MINT ARTIC PPRMIN15024 001449  000008000090029900815024
B02276801   ALTOIDS MINT ARTIC WNTGRN12047 001449  000008000050029900812047
B02200015935ALTOIDS MINT CINN 12/1.7612044 002899  000012000040039901212044
B02200015933ALTOIDS MINT PPRMINT 12/112045 002899  000012000080039901212045
B02297309   ALTOIDS MINT SMALLS PPMNT12250 001069  000009000070018900912250
B02297406   ALTOIDS MINT SMALLS WTRGR12251 001069  000009000070018900912251
B02200015931ALTOIDS MINT SPRMINT TIN 12046 002899  000012000010039901212046
B00220001593ALTOIDS MINT WNTRGRN TIN 18568 002899  000012000050039901218568
B44000022995ALUMINIUN ALLOY LIGH HY-X22995 001999  000001000090399900122995
B84018021016ALUMINUM CAKE PAN 8X8 4PK27098 000109  000001000070019900127098
B21000025530ALUMINUM ELECTRIC GRINDER25530 000399  000001000050079900125530
B73296271212ALUMINUM FOIL 25sqft     12440 000099  000001000030019900112440
B67697985191ALUMINUM FOIL 37.5 sqft  13313 000149  000001000100024900113313
B21000027465ALUMINUM PAN12.75INC X 3.27465 000119  000001000040019900127465
B81725001950ALUMINUM SING SHEET-9X10 18813 000999  000001000020099900118813
B07472918020ALUMINUM SQUARE TRAY 8x8 11330 000129  000004000090021900411330
B75601479813ALUMINUM TRAY OVAL 15x12i16286 000149  000001000080024900116286
B40154002594ALWAYS CALSSIC MAXI 9CT  25838 000199  000001000090032900125838
B40154002592ALWAYS CLASSIC 10PK      10702 000199  000001000010033900110702
B40154002608ALWAYS CLASSIC NIGHT PADS15939 000199  000001000060033900115939
B03700034967ALWAYS MAXI PADS REG 10CT12966 000249  000001000060041900112966
B03700087964ALWAYS PURE COTTON PAD RE31393 000479  000001000010079900131393
B03700083904ALWAYS RAD TEEN PADS REG 31394 000519  000001000060086900131394
B40154002593ALWAYS SENS  NORMAL  10PK15253 000189  000001000060029900115253
B03700042689ALWAYS THIN LINER SCENTED28631 000149  000001000050024900128631
B03700042688ALWAYS THIN LINER UNSCENT10698 000149  000001000080024900110698
B03077203339ALWAYS ULTRA THIN PAD REG31389 000499  000001000070082900131389
B03077203345ALWAYS ULTRA THIN PAD SUP31392 000499  000001000060082900131392
B03700034966ALWAYS ULTRATHIN PADS REG13008 000249  000001000040041900113008
B07019559926AM BEST PCH GOLDEN 6-3oz 29520 007349  000006000020169900629520
B07019559016AM BEST PCH ORIGINAL 6-3o29521 007349  000006000020169900629521
B07019559500AM BEST PCH SILVER 6-3oz 29519 007349  000006000020169900629519
B04799585507AM SPIRIT BLCK PERIQUE 1010808 010188  000010000051240001010808
B04799520046AM SPIRIT BLUE $1OFF VAP 28758 009181  000010000071140001028758
B04799585508AM SPIRIT BLUE KS 10/20PK10798 010188  000010000081240001010798
B04799585521AM SPIRIT CELADON  10/20P10804 010188  000010000011240001010804
B04799585603AM SPIRIT DARK BLUE 10/2013062 010188  000010000071240001013062
B04799585522AM SPIRIT DARK MENTHOL 1010806 010668  000010000060125801010806
B04799520073AM SPIRIT FUL-BOD RED $1O29919 007741  000010000010095201029919
B04799520070AM SPIRIT FUL-BOD RED 10-29895 008741  000010000060105201029895
B04799520058AM SPIRIT GOLD $1OFF     28768 009661  000010000030115801028768
B04799585601AM SPIRIT GRAY PERIQUE 1027586 010188  000010000091240001027586
B04799520029AM SPIRIT HUNTER KG BX   21747 010188  000010000101240001021747
B04799585505AM SPIRIT MELOW MEN GRN 110807 010668  000010000050125801010807
B04799520052AM SPIRIT MNTHL GREN $1OF28769 009661  000010000020115801028769
B04799520002AM SPIRIT NF KG BX FSC   13688 010188  000010000101240001013688
B04799585523AM SPIRIT ORANGE 10/20PK 10805 010188  000010000101240001010805
B04799585525AM SPIRIT ORGANIC GOLD 1010851 010668  000010000020125801010851
B04799500084AM SPIRIT RYO BLACK POUCH27634 008854  000006000010177500627634
B04799500080AM SPIRIT RYO BLUE POUCHE27687 008854  000006000080177500627687
B04799500083AM SPIRIT RYO DARK BLUE P27688 008854  000006000060177500627688
B04799510013AM SPIRIT RYO DARK BLUE T27686 005493  000001000050663500127686
B04799510010AM SPIRIT RYO ORGNAL BLUE27685 005493  000001000030663500127685
B04799500082AM SPIRIT RYO TURQUOISE P27635 008854  000006000060177500627635
B04799520043AM SPIRIT SKY BOX $1OFF  27694 009661  000010000060115801027694
B04799520040AM SPIRIT SKY MEDIUM BX 127478 010668  000010000040125801027478
B04799520064AM SPIRIT SMOOTH GOLD $1O29918 007741  000010000010095201029918
B04799520061AM SPIRIT SMOOTH GOLD 10-29894 008741  000010000100105201029894
B04799585605AM SPIRIT TAN US GROWN 1027613 010188  000010000061240001027613
B04799520055AM SPIRIT TURQUOISE $1OFF28760 009661  000010000010115801028760
B04799585524AM SPIRIT TURQUOISE 10/2010850 010668  000010000040125801010850
B04799585509AM SPIRIT YELLOW  10/20PK10803 010188  000010000021240001010803
B04799520049AM SPIRIT YELLOW $1OFF   28759 009181  000010000011140001028759
B72052472363AMAIZEING CHIPS BBQ 24ct-31127 003599  000024000030026902431127
B72052472361AMAIZEING CHIPS CHILI LIM31128 003599  000024000020026902431128
B72052472362AMAIZEING CHIPS GUACAMOLE31129 003599  000024000100026902431129
B72052472360AMAIZEING CHIPS PICO DE G31126 003599  000024000040026902431126
B20000000304AMAZE IN CAP(FOOD PATCH) 28919 000225  000001000030129900128919
B20000000321AMAZE IN TX FLAG CAP     29726 000400  000001000070129900129726
B04728699638AMBER OVAL MID-SHIP LIGHT32878 000600  000001000100129900132878
B04728670570AMBER ROUND MARKER 2.5in 32871 000246  000001000080054900132871
B04728670530AMBER ROUND MARKER 2in   32868 000178  000001000030054900132868
B04728699647AMBER ROUND MARKER 3/4in 32881 000400  000001000080074900132881
B66173275343AMERICAN CLASSIC CHEVY AP21899 001599  000001000030269900121899
B66173293464AMERICAN CLASSIC FORD 19721900 001399  000001000050239900121900
B21000025408AMERICAN FLAG COWBOY HAT 25408 000399  000001000030079900125408
B81005180459AMOS 4D GUMMY BLOCKS PEG 31781 002899  000012000040038801231781
B81005180963AMOS 4D PINEAPPLE BURST P31787 002899  000012000040038801231787
B81005180827AMOS 4D SOUTHERN PCH BURS31788 002899  000012000090038801231788
B81005180478AMOS 4D STRAWBERRY BURST 31786 002899  000012000030038801231786
B81005180798AMOS PEELERZ BANANA PEG 131784 002899  000012000030038801231784
B81005181222AMOS PEELERZ GRAPE PEG 1231782 002899  000012000080038801231782
B81005180797AMOS PEELERZ MANGO PEG 1231785 002899  000012000020038801231785
B81005181306AMOS PEELERZ PEACH PEG 1231783 002899  000012000060038801231783
B07731240835AMPRO CLEAR ICE STYLNG GE13807 000169  000001000070029900113807
B07731240622AMPRO REG HOLD BLK GEL 6o12156 000169  000001000030029900112156
B30573022567ANBESOL MAXM STRN GEL .3323505 000559  000006000010096900623505
B30573021825ANBESOL REG STRNG GEL .3323506 000489  000001000030081900123506
B04118600086ANDES CREME DE MENTHE 24013051 001639  000240000050002024013051
B02620047158ANDY CAPP CHEDDAR FRIES 123449 001249  000012000030018901223449
B02620047135ANDY CAPPS BBQ FRIES 12-313333 001249  000012000100018901213333
B02620047159ANDY CAPPS HOT FRIES 12-310009 001249  000012000030018901210009
B02620023187ANDY CAPPS RANCH FRIES 1225376 001249  000012000050018901225376
B03040077437ANGEL SOFT BATHRM TISUE 211933 002399  000024000020019902411933
B81878001422ANGIES BOOM CHICKA POP S&25371 002139  000012000030032901225371
B61315380762ANIMAL BUBBLE FAN        32956 000292  000001000010049900132956
B69434247020ANKLE SUPPORT 2CT PACK   21680 000109  000001000050021900121680
B34421510003ANONYMOUS BY THALLIUM 3.324154 001499  000001000100299900124154
B09897402002ANTENNA MOUNT STUD       32890 000520  000001000040099900132890
B73296238634ANTI-BACTERIAL HAND GEL 226603 000069  000001000080011900126603
B04142000388APPLEHEAD 25c 24/0.8oz   20312 000629  000024000030004902420312
B07313571951APPROVED TRANSMIS FLUID 110930 002159  000012000050029901210930
B84396275818AQUA FRESH FOR MEN 3.4FL.25714 000199  000001000100039900125714
B37001344043AQUA LINITZ  FOR MEN BY 424150 001399  000001000070279900124150
B06186079376AR GAME GUN (TT-AR1) ASOR23030 002099  000001000020399900123030
B85925900121AR SABROSITO CHIN PKL 12/21055 000949  000012000010017601221055
B44000022871ARC LIGHTERS ASSORTE DISP22871 016299  000018000090159901822871
B85500700462ARCOIRIS SABROSIT CHIL 5O23074 000239  000001000050039900123074
B85500700494ARCOIRIS SABROSITO CHMY 523072 000239  000001000040039900123072
B85500700495ARCOIRIS SAL CON LIMON 5O23073 000239  000001000040039900123073
B40502671062ARGENTINA HOME JERSEY (FI24237 001999  000001000060399900124237
B76172007104ARGO CORN STARCH 16oz    23933 000229  000001000070036900123933
B75010074557ARIEL DETERGENT 18CT-500 15723 002799  000018000060025901815723
B75010659088ARIEL DETERGENT 36CT-250 15724 002799  000036000040012903615724
B75004351208ARIEL DETERGENT REG  10CT25044 002499  000010000090041901025044
B03700094597ARIEL DETR 2X POWER 500g 30583 000159  000001000040022900130583
B03700094598ARIEL DETR ORIGINAL 1kg  30584 000309  000001000100054900130584
B03077210924ARIEL DETR ORIGINAL 250g 30188 000099  000001000060015900130188
B03700035994ARIEL DETR W/DOWNY 1.5kg 30190 000529  000001000020089900130190
B03077210923ARIEL DETR W/DOWNY 250g  30189 000119  000001000050019900130189
B03700036011ARIEL DETR W/ULTRA OXI 1.30191 000529  000001000060059900130191
B75061951470ARIEL DTERGNT W/DOWNY20/923971 003499  000020000030029902023971
B75004351388ARIEL DWNY DETRGNT 1.5KG 28244 000399  000012000040066901228244
B75004351103ARIEL REGULAR DETERGENT 128850 000349  000001000070057900128850
B75004351388ARIEL W/DOWNY 12/750GRM  25278 002599  000012000030035901225278
B61300873014ARIZ BTL FRUIT PUNCH 12-331238 001699  000012000010024901231238
B61300872177ARIZ BTL GREEN TEA 12-34o31235 001699  000012000100024901231235
B61300875686ARIZ BTL KIWI STWBY 12-3431237 001699  000012000040024901231237
B61300874247ARIZ BTL MUCHO MANGO 12-331236 001699  000012000030024901231236
B61300874537ARIZ BTL WATERMELON 12-3431234 001699  000012000080024901231234
B61300871876ARIZ CAN .99 FRUT PNCH 2410947 001599  000024000050009902410947
B61300871929ARIZ CAN .99 GRAPEADE 24-10939 001599  000024000100009902410939
B61300871526ARIZ CAN .99 GREEN TEA 2410940 001599  000024000020009902410940
B61300873543ARIZ CAN .99 KIWI STWBY 210949 001599  000024000070009902410949
B61300873515ARIZ CAN .99 LEMON TEA 2412085 001599  000024000070009902412085
B61300872609ARIZ CAN .99 LEMONADE 24-10948 001599  000024000100009902410948
B61300873541ARIZ CAN .99 MUCHO MNGO 210941 001599  000024000100009902410941
B61300871562ARIZ CAN .99 ORANGEADE 2410942 001599  000024000100009902410942
B61300871952ARIZ CAN .99 PEACH TEA 2412988 001599  000024000080009902412988
B61300871845ARIZ CAN .99 RX ENERGY 2410943 001599  000024000060009902410943
B61300871771ARIZ CAN .99 SWEET TEA 2410944 001599  000024000010009902410944
B61300872020ARIZ CAN .99 WATERMELON 210945 001599  000024000010009902410945
B61300875891ARIZ FRT SNK GREEN TEA 1231262 001699  000012000070025901231262
B61300875900ARIZ FRT SNK H&H AP 12-5o31263 001699  000012000020025901231263
B61300875193ARIZ FRT SNK MIX FRUIT 1231261 001699  000012000070025901231261
B61300876344ARIZ FRT SNK SOUR 12-5oz 31264 001699  000012000060025901231264
B61300873102ARIZ TALL BLUBY WHT TEA 231243 001649  000024000070012902431243
B61300872581ARIZ TALL H&H AP LITE 24-31240 001649  000024000070012902431240
B61300873228ARIZ TALL H&H RSPBY 24-2031239 001649  000024000050012902431239
B61300875143ARIZ TALL PEACH TEA 24-2031241 001649  000024000050012902431241
B61300875665ARIZ TALL PINEAPPLE 24-2031244 001649  000024000090012902431244
B61300875886ARIZ TALL STRAWBERRY 24-231242 001649  000024000030012902431242
B61300873547ARIZONA  RSPBRY TEA 24/2316139 001499  000024000070009902416139
B61300871930ARIZONA AP BLACK H&H 24/226071 001599  000024000080009902426071
B61300872211ARIZONA AP GRN H&H 99c 2428951 001599  000024000080009902428951
B61300872286ARIZONA BLACK TEA/GIN 24-28849 001599  000024000070009902428849
B61300872585ARIZONA CAN HALF MANGO24/16140 001499  000024000080009902416140
B61300873501ARIZONA CHRY LIM 99c24-2314575 001499  000024000050009902414575
B03320001110ARM & HAMMER BAKING SODA 16706 000119  000001000020019900116706
B03320001130ARM & HAMMER BAKNG SODA 811951 000069  000001000070011900111951
B69389520261ARM SLEEVES AST DESIGN & 27838 000139  000001000060027900127838
B03320014220ARM&HAMMER FABRIC SOFTNR 11953 000119  000001000090021900111953
B07061217497ARMOR ALL CLEANING WIPES 29943 000459  000001000100076900129943
B07061219472ARMOR ALL DISNFCNT WIPES 27856 000346  000001000030059900127856
B07061218581ARMOR ALL LEATHER CARE WI13186 000459  000001000070076900113186
B07061218934ARMOR ALL LTHR CARE BSWX 29944 000719  000001000030119900129944
B07061217496ARMOR ALL ORG PROTCNT 30W27739 000459  000001000100076900127739
B07061210010ARMOR ALL PROTECTANT 10oz11963 000399  000001000070066900111963
B07061210040ARMOR ALL PROTECTANT 4oz 11959 000179  000001000070029900111959
B07061240320ARMOR ALL TIRE FOAM 20OZ 27732 000439  000001000090067900127732
B07061240040ARMOR ALL TIRE FOAM 4oz (11958 000179  000001000090027900111958
B07061278000ARMOR ALL US PROTECTANT 129945 000629  000001000050104900129945
B07061278090ARMOR ALL WHEEL CLNR 24oz11965 000479  000001000020079900111965
B07061210861ARMOR ALL WIPES FRESH 25 13187 000349  000001000050057900113187
B88796132039ARMOR BATMAN TOY 3+AGE EA24195 001099  000001000070219900124195
B05410033851ARMOUR BEEF STEW CLASI 2023188 000339  000001000050055900123188
B05410092502ARMOUR ORG VIENNA SAUSAGE30835 000119  000001000030019900130835
B03390752012ARRIBA FIRE ROASTED RED S25158 001379  000001000030137900125158
B03390752015ARRIBA FIRE RSTD GRN SALS25139 001669  000001000040166900125139
B04816801639ARTIC FREEZE ULT SYN R13433290 003779  000001000040479900133290
B07565601308ARTS&CRAFT LACE SET #130818169 000089  000001000060017900118169
B89061255419AS CANDLE BAMBOO BREEZE  28966 000339  000001000050061900128966
B89061255418AS CANDLE COME TO ME     29038 000339  000001000030061900129038
B89061255417AS CANDLE FRESH CUT APPLE29041 000339  000001000070061900129041
B89061255420AS CANDLE FRESH LINEN    29042 000339  000001000060061900129042
B89061255417AS CANDLE FRUITY SPLASH  29035 000339  000001000010061900129035
B89061255420AS CANDLE NAG CHAMPA     29039 000339  000001000050061900129039
B89061255419AS CANDLE PINEAPPLE & COC29037 000339  000001000090061900129037
B89061255418AS CANDLE PURPLE HAZE    29036 000339  000001000070061900129036
B89061255419AS CANDLE SPICY PUMPKIN  29040 000339  000001000040061900129040
B89061255418AS CANDLE SWEET N CHILLY 29043 000339  000001000030061900129043
B67675860016ASHTRAY GLASS ROUND ASST 30224 000249  000001000100049900130224
B01850514407ASHTRAY GLASS SQUARE ASST30225 000299  000001000090059900130225
B21000023944ASHTRAY WITH LED LIGHTS A23944 000425  000001000040084900123944
B87403771304ASTRO FRIDGE/OFFICE MAGNE24045 000099  000001000090019900124045
B09474654128ASTROS BLING LANYARD ID C22831 000350  000001000030069900122831
B03208513299ASTROS CAR STICKER (E)   22739 000225  000001000030049900122739
B12345650476ASTROS FANCY CAP (E)     22740 001899  000001000050379900122740
B76326427699ASTROS LICENSED KEYCHAIN 27416 000299  000001000040059900127416
B09474646022ASTROS LICENSED KEYCHAINS22833 000299  000001000060059900122833
B76326432520ASTROS LICENSED NECKLACE 22832 000499  000001000010099900122832
B09474658226ASTROS LICENSED WALLET LE22835 000799  000001000050149900122835
B88886011798ASTROS MINNOW FISHING LUR22834 000325  000001000040059900122834
B12345650477ASTROS MLB FLAT CAP ASSOR22741 001899  000001000090379900122741
B12345650478ASTROS SHOT GLASSES 4PK (22742 001499  000001000020299900122742
B12345650479ASTROS STRAIGHT CAPS (E) 22743 001299  000001000090259900122743
B12345650480ASTROS STRAIGHT CAPS VELC22744 001299  000001000100259900122744
B12345650481ASTROS TEAM CAR PLATE (E)22745 000449  000001000050089900122745
B12345650475ASTROS TEAM FLAG (E)     22738 000250  000001000090049900122738
B12345650482ASTROS WALLET SET (E)    22746 001699  000001000050339900122746
B65717534360ASTROS WRISTER KEYCHAINS 22836 000299  000001000070059900122836
B08686737929ASTROS WS CHAMP 6PK COOLE22848 000849  000001000030159900122848
B08686737959ASTROS WS CHAMP BTL S KOO22849 000249  000001000030049900122849
B08686737909ASTROS WS CHAMP JERSY KOO22850 000279  000001000080059900122850
B08686737939ASTROS WS CHAMP17 BTL INS22851 000525  000001000060099900122851
B08686737969ASTROS WS CHAMP17 CAN KOO22852 000399  000001000010079900122852
B04116803200ATK BLACK COW CANDY BAR2431016 002569  000024000050017902431016
B04116838212ATK BUTTERSCOTCH PEG 12CT31526 001499  000012000020022701231526
B04116800621ATK CHICK-O-STICK 160-0.310547 002199  000160000010003016010547
B04116800646ATK CHICK-O-STICK 24-1.6o10342 002549  000024000030019902410342
B04116863167ATK CHICK-O-STICK 36-0.7o23564 000999  000036000020006003623564
B04116877177ATK CINNAMO STICKS 52-0.724706 001099  000052000100004505224706
B04116800121ATK CRUNCHY PB BARS 160-010546 002199  000160000070003016010546
B04116838412ATK HONEY TWIST PEG 12-5o31527 001499  000012000080022701231527
B04116839147ATK JUMBO MINT STICKS 36-12136 000749  000036000070005003612136
B04116839147ATK JUMBO MINT STICKS 52-24707 001099  000052000030004505224707
B04116817523ATK LONG BOYS COCONT 130-10612 001639  000130000060002513010612
B04116817523ATK LONG BOYS COCONT 48-024609 000659  000048000020003004824609
B04116807515ATK LONG BOYS COCONUT BAR31014 002569  000024000060017902431014
B04116800828ATK MINT TWISTS 240ct    24708 001379  000240000030001524024708
B04116800750ATK RAINBOW COCONUT CANDY31017 002569  000024000020017902431017
B04116838147ATK RAINBOW STICKS 36-0.711020 000749  000036000030005003611020
B04116838147ATK RAINBOW STICKS 52-0.724705 001099  000052000050004505224705
B04116803100ATK SLO POLE CARAMEL CAND31015 002569  000024000040017902431015
B04116815150ATK SOPHIE MAE PNUT BRT B31525 002569  000024000060019502431525
B76326497132ATLANTA FALCONS LANYARDS 27351 000399  000001000030079900127351
B07945803505ATO EMERGENCY FUSE KIT   32857 000372  000001000070069900132857
B07065080078ATOT COCO GINGER NOODLE 629340 001080  000006000080059900629340
B07065080076ATOT PAD THAI NOODLES 6-529334 002159  000006000050059900629334
B07065080077ATOT RED CURRY NOODLE 6-529337 001080  000006000020059900629337
B07065080079ATOT YELOW CURY NOODLE 6-29342 001080  000006000070059900629342
B03000005950AUNT JEMIMA ORI SYRUP 12Z16705 000249  000001000050041900116705
B03000005290AUNT JEMIMA PANCAK MX REG15651 000189  000001000010031900115651
B02429114808AUTO BULBS 2057 12V 2pk  10034 000069  000001000050011900110034
B02429114801AUTO BULBS 2PK 1157 A/S (10455 000072  000001000020021900110455
B02429114806AUTO BULBS 2PK 1157NA A/S18055 000099  000001000030016900118055
B88549024265AUTO BULBS 2PK 12V       28740 000099  000001000070016900128740
B02429114803AUTO BULBS 2PK 194 A/S (E18048 000040  000001000060006900118048
B02429114260AUTO FUSE 5/ASSTD MIN PEN18049 000121  000001000060019900118049
B02429114820AUTO FUSE BLAD 5/ASRTD PN18056 000133  000001000030021900118056
B67675897030AUTO OPEN 4-T POCKET TORC20580 004629  000020000020038902020580
B02429114837AUTO SOLUTIONS RUBER PATC18067 000099  000001000050015900118067
B02429114840AUTO SOLUTIONS TIRE REPAI12236 000198  000001000060032900112236
B07313520052AUTOGD AF+CLNT GRN 50/50 21108 003899  000006000030099900621108
B07313520025AUTOGD AF+CLNT GRN FULL 621109 005039  000006000060129900621109
B07313501212AUTOGUARD CLEAR VISION 6/27722 001499  000006000010038900627722
B07313570110AUTOGUARD NW FNSH CAR WSH15568 000159  000001000050031900115568
B07313570114AUTOGUARD NW TIR SHIN SPR15569 000259  000001000100031900115569
B64346286993AUX CABLE - 1M - 10 PACK 22575 000699  000010000030019901022575
B21000025290AUX CABLE 10CT BAG       25290 001169  000010000090023901025290
B44200055512AUX CABLE 3.5MM 10CT(CP) 20701 001499  000010000080029901020701
B38137003602AVEENO DAILY MOISTURIZING22822 000315  000001000010046900122822
B21000022867AVENGERS LED MASK TOY ASS22867 000499  000001000050089900122867
B02774741439AVENGERS ULTRN HERO CAR E23138 003499  000001000050699900123138
B07385400917AVIATOR JUMBO INDEX PLAY 33309 000174  000001000010031900133309
B07385400914AVIATOR STANDARD INDEX   33308 000174  000001000070031900133308
B85286000344AVYO HAND SANITIZER 4OZ  26377 000075  000001000030029900126377
B72242932080AWSM BNG BTH CLNR 32OZ   26764 000109  000001000050017900126764
B72242964103AWSM DETERGENT 2in1 FRESH22748 000239  000001000010039900122748
B72242964099AWSM DETERGENT CLEAN FRSH28734 000229  000001000090037900128734
B72242964016AWSM DETERGENT MTN RAIN 629563 000209  000001000070034900129563
B72242964015AWSM DETERGENT ORIGINAL 629564 000209  000001000040034900129564
B07224296404AWSM DETERGENT ORIGINAL 613121 000209  000001000100034900113121
B72242964046AWSM DETERGENT OXYGEN PWR10791 000229  000001000090037900110791
B72242964045AWSM DTRGNT MOUNTAIN RAIN10790 000229  000001000010037900110790
B89010308667AXE ALASKA 3IN1 WASH 250m31113 000199  000001000060033900131113
B07940019721AXE ANARCHY HER SPRAY 15024495 000299  000001000030049900124495
B87125611952AXE ANTI TRANSPRANT PEACE21051 000229  000001000080047900121051
B07940011474AXE ANTIPERSPIRANT & DEO215031 000249  000001000100062300115031
B89010308667AXE APOLLO BODY WASH 250M25813 000199  000001000010033900125813
B88864670657AXE BDY SPRY LTHR COKIES 28308 000299  000001000060049900128308
B60010873646AXE BODY SPRAY ADRENALIN 15552 000299  000001000080054900115552
B87104474972AXE BODY SPRAY AFRICA 15013088 000299  000001000090049900113088
B87125612491AXE BODY SPRAY ALASKA 15013901 000219  000001000020036900113901
B87181143269AXE BODY SPRAY ALASKA 15023671 000229  000001000090047900123671
B60010873751AXE BODY SPRAY ANTI GOLD 27612 000229  000001000070049900127612
B87125612516AXE BODY SPRAY ANTI-HNG 115258 000219  000001000090036900115258
B60010873646AXE BODY SPRAY APOLLO 15014327 000299  000001000090049900114327
B87201811144AXE BODY SPRAY BLACK 150M22341 000299  000001000060049900122341
B87176440130AXE BODY SPRAY CLICK 150M10025 000229  000001000050047900110025
B87125612494AXE BODY SPRAY DEEP SPACE15966 000219  000001000080036900115966
B60010873638AXE BODY SPRAY DRK TEMPT 10240 000299  000001000090049900110240
B87125616210AXE BODY SPRAY DRY BLACK 22342 000229  000001000100047900122342
B87104472854AXE BODY SPRAY ENERGISED 24494 000229  000001000070047900124494
B60010873646AXE BODY SPRAY EXCITE 15013802 000299  000001000080049900113802
B60010873751AXE BODY SPRAY GOLD 150ML15766 000299  000001000050049900115766
B87201811145AXE BODY SPRAY GOLD TEMP 26596 000299  000001000030049900126596
B60010873792AXE BODY SPRAY ICE CHILL 26595 000299  000001000080049900126595
B77912930410AXE BODY SPRAY MARINE 15013433 000299  000001000030049900113433
B87125612497AXE BODY SPRAY MATURE 15022343 000229  000001000100047900122343
B77912930258AXE BODY SPRAY MUSK 150ml10026 000299  000001000060049900110026
B60010873646AXE BODY SPRAY PEACE 150M14998 000229  000001000020047900114998
B87104474845AXE BODY SPRAY REFRESHED 24492 000229  000001000100047900124492
B87125612499AXE BODY SPRAY SPORT BLAS13902 000219  000001000080039900113902
B60010873646AXE BODY SPRAY TWIST 150M15472 000219  000001000040039900115472
B60010873646AXE BODY SPRAY WILD SPIC 15373 000299  000001000030049900115373
B60010873647AXE BODY SPRAY YOU 150ML 22406 000229  000001000090047900122406
B07940019720AXE BODY SPRY ANRCHY HER 14969 000299  000001000080049900114969
B87171636410AXE BODY SPRY ANRCHY HIS 15084 000299  000001000030049900115084
B87104472856AXE BODY SPRY ANTI D TEMP20482 000229  000001000090047900120482
B87104472856AXE BODY SPRY ANTI URBAN 23467 000229  000001000030047900123467
B87181146527AXE BODY SPRY DRY EXCITE 20483 000199  000001000070047900120483
B89010308667AXE BODY WASH AFRICA 250M24503 000199  000001000010033900124503
B89010308667AXE BODY WASH BLACK 250M 28021 000199  000001000050033900128021
B89010308486AXE BODY WASH DARK TEMP 224504 000199  000001000100033900124504
B87125611904AXE BODY WASH PEACE 250ML24502 000179  000001000020031900124502
B77912930347AXE COLLISION SPRAY 150ML24491 000299  000001000020053900124491
B07940046978AXE COOL OCEAN BODY SPRAY27784 000359  000001000040064900127784
B87171636115AXE DEODORANT STICK MARIN12897 000199  000001000070032900112897
B87181141514AXE DRY ANTI-PERSPIRANT T21053 000249  000001000030062300121053
B77912930506AXE EPIC FRESH SPRAY 150m24493 000299  000001000090049900124493
B89010308667AXE EXCITE BODY WASH 250M26604 000199  000001000040033900126604
Bx6001087364AXE SPRAY DRY APOLLO 150M23472 000219  000006000060045900623472
B79450485320AXXION FOAM PLATES 25CT/628738 000169  000001000100028900128738
B07161075696AYC GRENADIERS DARK 6PK/313358 003629  000006000070098000613358
B07161075694AYC GRENADIERS LIGHT 5-6 13359 003629  000005000060098000513359
B33515009808AZZARO POUR HOMME 1.7OZ  25605 001799  000001000010359900125605
B33515009750AZZARO SILVER BLACK 3.4oz23952 001399  000001000070279900123952
B33515000027AZZARO WANTED  TOILETE 1023954 003799  000001000010779900123954
B07965604532B B SUNSCREN LOTION 24/1O26599 002599  000024000020017902426599
B08069295096B H ORANGE SANDY PALM GLO27826 000429  000001000020071900127826
B83940999850B JACKET C-III LIME GREEN22071 002499  000001000080499900122071
B83940999853B JACKET C-III LIME GREEN22074 002499  000001000080499900122074
B83940999854B JACKET C-III LIME GREEN22075 002499  000001000040499900122075
B83940999852B JACKET C-III LIME GREEN22073 002499  000001000060499900122073
B83940999851B JACKET C-III LIME GREEN22072 002499  000001000080499900122072
B07565600774B LOONIES 8PK #774       18148 000139  000001000030027800118148
B02870924   B&H 100                  10882 007204  000010000060082901010882
B02872223   B&H 100 BOX              10876 011667  000010000060141301010876
B04177004230B&H ALMOND ROCA 3 PCS 12/29392 001189  000012000030017901229392
B04177008740B&H ALMOND ROCA BITES 16/29393 001579  000016000090017901629393
B02872922   B&H DELUXE (ULT) 100 BOX 10866 011667  000010000030141301010866
B02873028   B&H DELUXE MENTHOL 100 BX10878 011667  000010000050141301010878
B02872427   B&H LUXURY (LT) 100      10883 007714  000010000060091901010883
B02872728   B&H LUXURY (LT) 100 BOX  10867 011667  000010000080141301010867
B02872524   B&H LUXURY MENTHOL  100  10869 007204  000010000090082901010869
B02872825   B&H LUXURY MENTHOL 100 BO10870 011667  000010000080141301010870
B02871923   B&H MENTHOL  100         10877 007204  000010000020082901010877
B02872320   B&H MENTHOL 100 BOX      10868 011667  000010000050141301010868
B02820032852B&H MENTHOL 100 BX 10CT  24752 011667  000010000050141301024752
B02820032842B&H MENTHOL KING BX 10/2024753 011667  000010000010141301024753
B04177008750B&H MILK CHO ROCA BITS 1629391 001579  000016000030017901629391
B03575111425B/A BANANA BREAD 8CT     28050 001439  000008000070032900828050
B03575111314B/A BANANA NUT MUFFIN 8CT28061 001439  000008000060032900828061
B03575111107B/A BEAR CLAW 8CT        28066 001439  000008000050032900828066
B03575111114B/A BLUEBERRY DANISH 8CT 28060 001439  000008000060032900828060
B03575111448B/A BLUEBERRY LEMON COFFE28041 001439  000008000050032900828041
B03575111310B/A BLUEBERRY MUFFIN 8CT 28057 001439  000008000050032900828057
B03575111446B/A BROWNIE CHEESE CAKE 828044 001359  000008000060030900828044
B03575111723B/A CALIFORNIA SWEET ROLL28037 001439  000008000080032900828037
B03575111827B/A CELEBRATION DONUT 8CT28033 001439  000008000050032900828033
B03575111427B/A CHEESE CAKE 8CT      28049 001439  000008000060032900828049
B03575111430B/A CHEESE COFFEE CAKE 8C28046 001439  000008000060032900828046
B03575111113B/A CHEESE CROISSANT 8CT 28063 001439  000008000040032900828063
B03575111109B/A CHEESE&BERRIES DANISH28065 001439  000008000020032900828065
B03575111313B/A CHOCOLATE CHIP MUFFIN28056 001439  000008000050032900828056
B03575111312B/A CHOCOLATE MUFFIN 8CT 28054 001439  000008000060032900828054
B03575111201B/A CINNAMON ROLL 8CT    28058 001439  000008000010032900828058
B03575111700B/A CONCHA FRENCH SWET RO28040 001439  000008000020032900828040
B03575111432B/A CREAM CHEESE CAKE 8CT28045 001439  000008000100032900828045
B03575111106B/A DANISH APPLE 8CT     28067 001439  000008000080032900828067
B03575111206B/A DANISH LEMON CHEES 1033366 001799  000010000010032901033366
B03575111208B/A DANISH STRBY N CRM 1033367 001799  000010000050032901033367
B03575111832B/A DONUTS CELEBRATION 8/28326 001439  000008000030032900828326
B03575111830B/A DONUTS CHOCOLATE 8/6P28324 001439  000008000070032900828324
B03575111828B/A DONUTS CRUMB 8/6PK   28325 001439  000008000100032900828325
B03575111831B/A DONUTS DULCE DE LCHE 28327 001439  000008000010032900828327
B03575111829B/A DONUTS POWDER SUGAR 828035 001439  000008000010032900828035
B03575111834B/A DONUTS STRBRY CHESCK 33365 001439  000008000040032900833365
B03575111816B/A GALLETA CON PASAS 8CT28038 001359  000008000040030900828038
B03575111428B/A LEMON CAKE 8CT       28048 001439  000008000050032900828048
B03575111205B/A LEMON DANISH 8CT     28059 001439  000008000010032900828059
B03575111447B/A LOUISIANA CRUNCH CAKE28042 001359  000008000070030900828042
B03575111429B/A MARBLE CAKE 8CT      28047 001439  000008000050032900828047
B03575111350B/A MINI BANANA NUT MUFIN28053 001439  000008000010032900828053
B03575111351B/A MINI BLUEBERRY MUFFIN28052 001329  000008000010026900828052
B03575111720B/A PAN DE QUESO 8CT     28043 001439  000008000030032900828043
B03575111426B/A POUND CAKE 8CT       28051 001439  000008000030032900828051
B03575111709B/A SEMITAS 8CT          28039 001439  000008000100032900828039
B03575111302B/A STRAWBERRY CHEESE MFN28055 001439  000008000010032900828055
B03575111201B/A SUPER CINAMON ROLL 8c30874 001439  000008000060032900830874
B03575111112B/A VIENNA CREAM DANISH 828064 001439  000008000010032900828064
B07965605164B/BOAT SPORT SPF30 1.8OZ 14341 000239  000001000100039900114341
B07965603178B/BOAT SPORT SPRAY SPF30 15022 000799  000001000040133900115022
B07965603179B/BOAT SPORT SPRAY SPF50 15023 000799  000001000060133900115023
B07965604993B/BOAT SPORT SUN/S SPF50 15705 000239  000001000040039900115705
B07965601913B/BOAT SUN/S SPRY KID 1.811335 000229  000001000050041900111335
B07965601681B/BT KIDS SPRT SPF50 LOTI31406 000799  000001000020133900131406
B07965601806B/BT KIDS SPRT SPF50 SPRA31407 000819  000001000090133900131407
B07965604971B/BT SPRT ULTR SPF30 LOTI31401 000799  000001000040133900131401
B07965612221B/BT SPRT ULTR SPF30 SPRA31408 000249  000001000020041900131408
B07965604972B/BT SPRT ULTR SPF50 LOTI31403 000869  000001000060133900131403
B02010000021B/C FISH STEAKS IN SOYBEN25817 000119  000001000080019900125817
B02010000019B/C FISH STKS LA HOT SA 324382 000149  000001000030024900124382
B02010000025B/C FSH STEAKS LOUISINA S25816 000149  000001000080024900125816
B02010000006B/C SARDINES IN SOYBEAN O24111 000149  000001000040024900124111
B02010000046B/C SARDINES IN WATER 3.724380 000119  000001000020019900124380
B02010000007B/C SARDINES MUSTARD 3.7524383 000149  000001000080024900124383
B02010000017B/C SARDNS IN TOMATO3.75O24381 000149  000001000040024900124381
B02010000008B/C SRDNS HG CHILI 3.75OZ24112 000149  000001000040024900124112
B21000024156BABY BEACH TOYS SET AST  24156 000119  000001000040023900124156
B04111600595BABY BOTTLE POP CANDY 18-16453 002863  000018000030028901816453
B04815590345BABY LOTION 12OZ         14795 000129  000001000090021900114795
B01592110010BABY OIL 7OZ             14710 000129  000001000070023900114710
B09990062546BABY RUTH 24/1.9 OZ      10354 002399  000024000020018902410354
B09990080100BABY RUTH KS 18/3.3OZ    10307 003099  000018000080029901810307
B84018020041BABY SHAMPOO 16.9 FL OZ  16108 000159  000001000050026900116108
B73296238546BABY WIPES (BLUE/GREEN) 810779 000119  000001000070019900110779
B84018020008BABY WIPES (PINK) 80SHTS 23674 000119  000001000040019900123674
B07008506012BAGEL BITES PRONI&CHZ PIZ30974 002069  000008000050042900830974
B07008506010BAGEL BITES THREE CHZ PIZ30975 002069  000008000060042900830975
B02429111526BALLOONS BDAY 12INCH 10CT18119 000119  000001000090019900118119
B76326497149BALTIMORE RAVENS LANYARDS27341 000399  000001000060079900127341
B07965600007BANANA BOAT AFTER SUN GEL26597 000369  000001000070061900126597
B07965604968BANANA BOAT US SUNSCRN LT26598 000889  000001000060147900126598
B76700041005BANANA CHIPS 6oz         33226 000113  000001000050018800133226
B08816828019BANDAGE ASSORTED 100CT   27873 000129  000001000020021900127873
B21000025356BANDANA AMERICAN DOLLAR  25356 000079  000001000030019900125356
B21000026352BANDANA AST COLOR/DESIGN 26352 000739  000012000080012901226352
B21000025539BANDANA ASTD COLORS(UNHOO25539 000069  000001000060016900125539
B64101832660BANDANA MEXICO FLAG EACH 25257 000099  000001000100019900125257
B64101831341BANDANA PRINTED ARMY EACH21761 000109  000001000030021900121761
B69854571214BANDANA PRINTED ASTD DESI25250 000079  000001000070019900125250
B21000025358BANDANA PRINTED BABY BLUE25358 000099  000001000020019900125358
B64101832383BANDANA PRINTED BERGUNDY 23753 000099  000001000040019900123753
B64101831337BANDANA PRINTED BLACK EAC21758 000099  000001000100019900121758
B64101832659BANDANA PRINTED BROWN EAC26417 000099  000001000040019900126417
B21000025701BANDANA PRINTED CAMOUFLAG25701 000079  000001000060019900125701
B21000025698BANDANA PRINTED CANNABIS 25698 000079  000001000060019900125698
B21000025699BANDANA PRINTED FLAMES EA25699 000079  000001000040019900125699
B12345650347BANDANA PRINTED FUSCHSIA 21754 000099  000001000090019900121754
B64101832418BANDANA PRINTED GREY EACH25255 000099  000001000070019900125255
B64101832384BANDANA PRINTED HUNTER GR26418 000079  000001000050019900126418
B64101832411BANDANA PRINTED LAVENDER 27655 000099  000001000010019900127655
B21000025359BANDANA PRINTED LIGHT GRE25359 000099  000001000070019900125359
B64101831342BANDANA PRINTED MARIJUANA25256 000099  000001000080019900125256
B64101831338BANDANA PRINTED NAVY BLUE21757 000109  000001000090021900121757
B21000025357BANDANA PRINTED ORANGE EA25357 000099  000001000030019900125357
B64101832409BANDANA PRINTED PINK EACH25266 000099  000001000050019900125266
B24683111243BANDANA PRINTED PURPLE EA21755 000109  000001000060021900121755
B64101831336BANDANA PRINTED RED EACH 21756 000099  000001000060019900121756
B64101831792BANDANA PRINTED ROYAL BLU26649 000099  000001000100019900126649
B21000025700BANDANA PRINTED SKULLS EA25700 000079  000001000100019900125700
B64101832412BANDANA PRINTED TURQUOISE26648 000099  000001000010019900126648
B64101831340BANDANA PRINTED USA EACH 21760 000115  000001000010021900121760
B24683111244BANDANA PRINTED WHITE EAC21759 000109  000001000020021900121759
B64101832408BANDANA PRINTED YELLOW EA25538 000099  000001000030019900125538
B76720395957BANDANA W/HOOK BLACK 12ct30520 001199  000012000090019901230520
B76720395962BANDANA W/HOOK CAMO 12ct 30522 001199  000012000090019901230522
B76720395958BANDANA W/HOOK DARK RED 130521 001199  000012000050019901230521
B76720395964BANDANA W/HOOK NAVY BLUE 30273 001199  000012000090019901230273
B76720396009BANDANA W/HOOK TEXAS FLAG30274 001199  000012000060019901230274
B76720395961BANDANA W/HOOK US FLAG 1230275 001199  000012000080019901230275
B76720395965BANDANA W/HOOK WHITE 12ct30276 001199  000012000080019901230276
B61076426214BANG E SHOT RAINBOW UNICO26758 002099  000012000100029901226758
B61076426169BANG E-SHOT BANGSTER BERR26760 002099  000012000070029901226760
B61076426171BANG E-SHOT PEACH MANGO 126759 002099  000012000060029901226759
B61076426167BANG E-SHOT PURPLE HAZE 126757 002099  000012000040029901226757
B07565600850BANG POPS SNAPPERS  #850 18154 000069  000001000090013800118154
B03100010101BANQUET CHICKEN POT PIE 716198 000159  000001000100026900116198
B03100010009BANQUET FRIED CHICKEN 29o31335 000999  000001000060166900131335
B03100000730BANQUET SALISBURY STEAK M16197 000169  000001000100028900116197
B65570812011BARBASOL SHAVE CREAM 6ct 32259 001253  000006000070038900632259
B03605772065BARBIE DOLL & FASHION AST23781 001299  000001000050199900123781
B85002218011BARCODE BLACKCHERY 12ct-131122 002299  000012000020031901231122
B85002218009BARCODE CONCORD GPE12ct-131125 002299  000012000030031901231125
B85002218000BARCODE LEMON LIME 12ct-131121 002299  000012000020031901231121
B85002218015BARCODE MALIBU PCH 12ct-131124 002299  000012000080031901231124
B85002218001BARCODE WATERMELON 12ct-131123 002299  000012000020031901231123
B85000042926BAREBELL BAR CHOC DGH 12-33339 002495  000012000080036901233339
B85005410854BAREBELL BAR CKE&CRML 12-33341 002495  000012000080036901233341
B85000042911BAREBELL BAR CKIE&CRM 12-33337 002495  000012000060036901233337
B85000042909BAREBELL BAR CML CSHW 12-33338 002495  000012000050036901233338
B85000042941BAREBELL BAR CRM CRSP 12-33340 002495  000012000010036901233340
B04437901   BARNUMS ANIMAL CRAKER 2.111444 000229  000001000010041900111444
B04770870115BARREL SWIVEL W/SNAP SZ 132672 000100  000001000020017900132672
B04770870118BARREL SWIVEL W/SNAP SZ 332673 000100  000001000070017900132673
B04770870117BARREL SWIVEL W/SNAP SZ 532674 000100  000001000090017900132674
B04770870116BARREL SWIVEL W/SNAP SZ 732675 000100  000001000020017900132675
B04608701199BARS COOLNG RDTR STOP LEA33204 000419  000001000070069900133204
B04608701334BARS LEKS 3X ONE SEL ENGN15638 000369  000001000090061900115638
B04608701194BARS RADIATOR 2X STOP LEA18797 000180  000001000070036900118797
B04608701196BARS RADIATOR STOP LEAK 131362 000319  000001000010052900131362
B04608700017BARS RADTOR STOP LEAK .7513945 000109  000001000030025900113945
B04608701420BARS TRANS STOPLEAK 11OZ(24114 000279  000001000040043900124114
B22838      BASEBALL TSHIRTS ASSORTED22838 000499  000001000080099900122838
B02820030402BASIC 100 BX FSC         11210 007230  000010000020086901011210
B02820030362BASIC BLUE PK (ULT) 100 B11211 007230  000010000100085901011211
B02820030502BASIC BLUE PK (ULT) KG BX11209 007230  000010000100086901011209
B79408023739BASIC GLASS ROSE         33003 000585  000001000020116900133003
B02820030462BASIC GOLD (LT) 100 BX FS11213 007230  000010000050085901011213
B02820030432BASIC GOLD (LT) KG BX FSC11214 007230  000010000040086901011214
B02820030372BASIC KG BX FSC          11212 007230  000010000010085901011212
B02820030392BASIC MEN 100 BX FSC     12877 007025  000010000070084901012877
B02820030452BASIC MEN GOLD (LT) 100 B12876 007230  000010000050085901012876
B02820030422BASIC MEN GOLD (LT) KG BX16504 007230  000010000080086901016504
B02820030532BASIC MENTHOL KING BOX 1033106 007230  000010000040085901033106
B65201809181BASS TWS4/S5 WIRELES HEAD25502 001600  000001000030319900125502
B61502898264BATMAN BATMOBILE THE DARK21896 004999  000004000100219900421896
B80131098259BATMAN CLASSIC BATMOBILE 21906 001599  000001000100269900121906
B80131098261BATMAN CLASSIC THE DARK K21907 001599  000001000050269900121907
B88796132034BATMAN VS SUPERMAN TOY SE23782 000850  000001000060129900123782
B02429114828BATTERY TERMINAL SIDE POS18057 000121  000001000030020900118057
B02429114827BATTERY TERMINAL TOP POST18044 000108  000001000080019900118044
B07565600444BATTLE FORCE BIG BAG #44418141 000269  000001000010049900118141
B65570811828BAYER ASPIRIN BLISTER PK 20846 000489  000012000030009901220846
B65570821828BAYER ASPIRIN MULTI PACK 32240 000450  000006000040024900632240
B65833100795BAYER ASPIRIN PAIN RELIEV12187 001199  000050000020003905012187
B31284355854BAYER CAPLETS BACK&BODY 221436 000349  000001000100081900121436
B31284355536BAYER TABLET ASPRIN 325MG12141 000309  000001000090051900112141
B76460803113BAZIC 1.5 BLACK 3-RING BI20224 000139  000001000040024900120224
B76460804401BAZIC 6 1/2 PAPER SHAPER 20227 000129  000001000040021900120227
B76460800206BAZIC ASST COLR PUSH PIN 20220 000109  000001000090019900120220
B76460801756BAZIC BALL PENS BLUE 12PK20217 000129  000001000080021900120217
B76460803006BAZIC CALCULATOR POCKET S14071 000159  000001000100026900114071
B76460805074BAZIC CASH/RENT RCPT BK 520234 000119  000001000090021900120234
B76460801724BAZIC CIEL OIL GEN PEN BL26753 000149  000001000060024900126753
B76460801805BAZIC CLIPBOARD STD W/CLI20218 000129  000001000050021900120218
B76460800765BAZIC COLORED PENCIL 12pk20263 000119  000001000040021900120263
B76460800508BAZIC COMP BOOK W/R BM 1018486 000139  000001000020022900118486
B76460801614BAZIC CORR SET W/FLUID&MT20214 000139  000001000020022900120214
B76460800978BAZIC DUCT TAPE SLVR 1.8820252 000109  000001000070019900120252
B76460805068BAZIC ENVELOPES LARGE 30C27849 000139  000001000090022900127849
B76460802227BAZIC ERASER PINK BEVEL 420222 000099  000001000070016900120222
B76460802319BAZIC FLUOR HILGTR 3pk   12916 000119  000001000070022900112916
B76460802343BAZIC FLUOR HILGTR W/CLIP29917 000119  000001000010019900129917
B76460802320BAZIC FLUOR HILGTR YELLOW13947 000129  000001000070024900113947
B76460804302BAZIC GARAGE SALE 9X12 EA20903 000109  000001000090019900120903
B76460802025BAZIC GLUE STICK 3pk     14885 000139  000001000020022900114885
B76460802023BAZIC GLUE STICK 4PK     20219 000139  000001000060022900120219
B76460800574BAZIC GUMD WHITE ENVELOPE20233 000139  000001000100022900120233
B76460800127BAZIC H/D UTILTY CUTTER W15483 000169  000001000070027900115483
B76460805076BAZIC INVOICE BOOK 50set 24229 000149  000001000010024900124229
B76460800222BAZIC JMBO PPR CLIP SLVR 20221 000119  000001000050021900120221
B76460801213BAZIC JUMBO PERMNT MKR BL20211 000129  000001000010021900120211
B76460800955BAZIC MASKING TAPE 20yd  20251 000139  000001000090022900120251
B76460800708BAZIC MECH PENCIL 0.7mm 514249 000119  000001000040021900114249
B76460802306BAZIC MINI HIGHLIGHTER 6P14709 000139  000001000050031900114709
B76460800510BAZIC MULTI PURPOSE PAPER20237 000159  000001000020026900120237
B76460803201BAZIC PAPER PUNCH SINGLE 20226 000139  000001000020024900120226
B76460800920BAZIC PCK TAPE CLR 1.88x520250 000129  000001000090021900120250
B76460800597BAZIC PERF WRITING PAD 5020244 000119  000001000080019900120244
B76460802510BAZIC PREMIUM CRAYON 48pk20223 000169  000001000030027900120223
B76460802516BAZIC PREMIUM CRAYON 8pk 14255 000089  000001000090014900114255
B76460801755BAZIC PURE BALPNT PEN BLK20216 000129  000001000080021900120216
B76460800516BAZIC RULED WHITE INDEX C20238 000099  000001000060014900120238
B76466080500BAZIC SELF-SEAL BUBBLE MA20230 000129  000001000060021900120230
B76460805002BAZIC SELF-SEAL BUBL MAIL20229 000129  000001000100021900120229
B76460800575BAZIC SELF-SEAL ENVELOPE 18487 000149  000001000080026900118487
B76460800558BAZIC SPIRAL C/R 1 SUB 7024228 000119  000001000060019900124228
B72100302422BAZIC SPIRAL MEMO BOOK 3x12929 000129  000001000100024900112929
B76460800559BAZIC SPIRAL W/R 1 SUB 7020242 000119  000001000050019900120242
B76460800562BAZIC SPIRAL W/R 3 SUB 1220265 000179  000001000020029900120265
B76460800580BAZIC SPIRAL W/R 5 SUB 1520266 000249  000001000050041900120266
B76460800603BAZIC STANDARD (26/6) MET20246 000139  000001000090024900120246
B76460800604BAZIC STAPLER STD 26/6   20245 000169  000001000020027900120245
B76460800608BAZIC STAPLES STD 26/6 5020247 000129  000001000100021900120247
B76460800571BAZIC STENO G/R GRN 6x9 714073 000119  000001000040019900114073
B76460805103BAZIC STICK ON NOTE 3x3 420236 000119  000001000030021900120236
B76460804434BAZIC STNLS STL SCISSOR 820905 000129  000001000040021900120905
B76460804410BAZIC STNLS STL SCISSOR B20904 000119  000001000010020900120904
B76460800538BAZIC W/R 70CT. 1-SUBJECT20241 000159  000001000070026900120241
B76460803137BAZIC WHITE 3-RING BINDER20225 000139  000001000050024900120225
B76460800568BAZIC WIDE RULED FILLER P20264 000159  000001000100026500120264
B04111600261BAZOOKA BUBBLE GUM 12/2.114716 001169  000012000050017901214716
B04111620601BAZOOKA GUM ORIGINAL 12/627076 000739  000012000080011901227076
B04111601180BAZOOKA GUM SF ORIGINAL 629941 002099  000006000100064900629941
B04111601800BBYBTL POP TWISTERS 8-2.732480 001399  000008000080031900832480
B04203711115BC 6 POWDERS PAIN RELIEVE11707 003799  000024000020026902411707
B04203700058BC CHERY POWDER PAIN REF 30992 000869  000006000030023900630992
B04203711113BC HEADACHES POWDERS 36/211705 002399  000036000010012503611705
B04203711103BC PWDR ARTHRITIS STR 12-12812 001999  000012000060027901212812
B04157009927BD ALMONDS ROASTD SALTD 129394 002739  000012000040041901229394
B04157009918BD ALMONDS SMOKEHOUSE 12-29395 002739  000012000020041901229395
B04157009994BD ALMONDS WHOLE NTRL 12-29892 002739  000012000040041901229892
B04157009931BD ALMONDS WSBI&SOY SCE 129396 002739  000012000090041901229396
B09897403102BEADED SEAT CUSHION      32710 001012  000001000090249900132710
B61506800992BEAMER CANDLE BANANA NUT 30690 000599  000001000030159900130690
B81002735118BEAMER CANDLE BLACK LAVA 30227 000599  000001000010159900130227
B81002735119BEAMER CANDLE BLBRY RSBRY30228 000599  000001000040159900130228
B81002735706BEAMER CANDLE BLUBERY PIE30695 000599  000001000070159900130695
B81002735348BEAMER CANDLE CARIBBEAN 130229 000599  000001000080159900130229
B61506801004BEAMER CANDLE CREAMSICLE 30233 000599  000001000060159900130233
B61506800996BEAMER CANDLE FRESH 12oz 30226 000599  000001000090159900130226
B61506800997BEAMER CANDLE GRMA BAKING30688 000599  000001000070159900130688
B81002735347BEAMER CANDLE HICRML PIE 30693 000599  000001000060159900130693
B81002735715BEAMER CANDLE JUNGL JUICE30689 000599  000001000090159900130689
B81002735121BEAMER CANDLE LAVENDER 1230230 000599  000001000080159900130230
B81002735730BEAMER CANDLE LILAC FORST30694 000599  000001000030159900130694
B81002735122BEAMER CANDLE LUX LINEN 130231 000599  000001000050159900130231
B61506801150BEAMER CANDLE MOROCCAN 1230232 000599  000001000050159900130232
B61506800995BEAMER CANDLE OF FR VAN 130692 000599  000001000010159900130692
B81002735733BEAMER CANDLE WB&C 12oz  30691 000599  000001000060159900130691
B73134123761BEANIE ASSORTE COLOR 12CT21199 001789  000012000100029901221199
B8484448888 BEANIE ASST COLOR 12CT   29014 001999  000012000080030901229014
B72331505118BEANIE AST COLOR & DESIGN25866 000199  000001000060037900125866
B21000025865BEANIE AST COLOR W/DESIGN25865 001199  000012000020019901225865
B84760003003BEANIE CAMO EACH         22634 000199  000001000090039900122634
B69384040821BEANIE HEAVY DUTY EACH   27047 000289  000001000100059900127047
B74489713552BEANIE HOUSTON (LOGO) EAC25867 000269  000001000100053900125867
B69700802001BEANIE PREMIUM QLTY ASSOR22635 000399  000001000080079900122635
B76720395966BEANIE SHORT PLAIN BLACK 30289 002399  000012000090039901230289
B69885219015BEANIE WITH MASK EACH    28941 000199  000001000070039900128941
B21000025899BEANIE WITH POMPOM 12CT  25899 001799  000012000050029901225899
B88462310030BEAR NAKED ENERGY BAR CHO18232 000799  000008000020016900818232
B64862038974BEAR PLUS HEART GIFT AST 23500 000149  000001000020029900123500
B85754100716BEARIED TREASURE SHP GUMM29363 001559  000010000060028901029363
B61958500931BEBIN DIAPERS - SML 14CT 21551 000079  000001000060014900121551
B61958500421BEBIN DIAPERS SIZE 3-14PK21550 000279  000001000020046900121550
B61958500411BEBIN DIAPERS SMALL SIZ 221549 000239  000001000100039900121549
B07385400092BEE PLAYING CARDS 12CT   18475 002329  000012000070039901218475
B03510605704BEECH NUT CHEW.TOB. 12/3O12321 015799  000012000060179901212321
B07084200168BEER NUTS ALMOND DISPLY 129405 002209  000012000060032901229405
B07084200231BEER NUTS ALMOND TUBE 12/29401 001369  000012000030020901229401
B07084200159BEER NUTS BAR WASABI 12/129398 000989  000012000030014901229398
B07084200180BEER NUTS CANTINA w/TW 1229408 001419  000012000020021901229408
B07084200167BEER NUTS CASHEW DISPLY 129404 002169  000012000040032901229404
B07084200221BEER NUTS CASHEW TUBE 12/29400 001399  000012000010021901229400
B07084200331BEER NUTS FIERY HOT 12/1.29402 000769  000012000030011901229402
B07084200170BEER NUTS HABANERO BAR 1229407 001419  000012000050021901229407
B07084200206BEER NUTS OG PNUT TUBE 1229399 000769  000012000080011901229399
B07084200160BEER NUTS ORIG BAR 12/1.229397 001149  000012000030017901229397
B07084200169BEER NUTS ORIG BAR MIX 1229406 001449  000012000100021901229406
B07084200166BEER NUTS ORIGINAL PNUT 129403 001379  000012000070020901229403
B84018022500BEER PONG SET 18PCS      27450 000199  000001000030039900127450
B79408024200BELLY POPZ XMAS PLUSH TOY32201 000399  000001000060069900132201
B85500700406BELTS CHAMOY SWEET CHAMOY23066 000269  000001000090048900123066
B85500700426BELTS CHRY CHILE SPCY&SOU21063 000269  000001000100048900121063
B85500700431BELTS GREEN PICKLE 5oz   23069 000269  000001000030048900123069
B85500700451BELTS RAINBOW SPCY&SOUR 526000 000269  000001000040048900126000
B85500700405BELTS SABROSITAS SPCY&SOU21065 000269  000001000030048900121065
B85925900168BELTS SPICY MANGO 5oz    23068 000269  000001000030048900123068
B85147100819BELTS WATRMELON SPICY&SOU25999 000269  000001000010048900125999
B04400002828BELVITA BLUEBERRY 8/1.76o13751 000799  000008000030018900813751
B04400003193BELVITA CNMN BISCTS  8/1.16317 000799  000008000060018900816317
B04400004060BELVITA CRNBRY ORANGE 8/126933 000799  000008000010018900826933
B04400004069BELVITA PENUT BTR 8/1.76O21008 000799  000008000060018900821008
B31254717031BENADRYL ALLERGY 24pk    11286 000599  000001000080099900111286
B65570801960BENADRYL ALLERGY RELIEF 312191 001299  000030000090010003012191
B65570811960BENADRYL BLISTER PACK 12-20854 000919  000012000080012501220854
B35058053404BENADRYL CHILD ALLRGY CHR11292 000779  000001000050129900111292
B30045017005BENADRYL CHLDRN ALRGY/CON20484 000499  000001000100084900120484
B31254717167BENADRYL ITCH STOPING CRE23685 000399  000001000040066900123685
B65570821960BENADRYL MULTI PACK 6ct  32230 000775  000006000040029900632230
B07565601367BENDY PENCIL 50CM # 1367 18170 000069  000001000050012900118170
B01780013483BENEFUL DOG FOOD ORIG 3.521123 000589  000001000090098900121123
B01780010965BENEFUL DOG MEAL BF STEW 21128 000269  000001000060044900121128
B01780015843BENEFUL HEALTHY SMILE DEN21130 000099  000001000080019900121130
B01780013465BENEFUL HELT WGHT CHK DRY21122 000589  000001000080098900121122
B01780010964BENEFUL SIMRD CHK RICE TU21127 000269  000001000090044900121127
B07430008186BENGAY GREASELES TUBE 2OZ11281 000399  000001000020071900111281
B07430008197BENGAY PAIN RELIEVING CRE22823 000399  000001000090066900122823
B07430008193BENGAY ULTRA S PAIN RELIV11288 000529  000001000070083900111288
B61166520001BENNYS BAGEL DOG BEEF FNK31426 000199  000001000010035900131426
B61166520022BENNYS BAGEL DOG JPNO&CHZ31425 000199  000001000030035900131425
B07003830927BEST CHOICE WHITE DISTILL18300 000079  000001000030014900118300
B07015280175BEST MAID PICKLES HOT 1 G18414 000619  000001000010102900118414
B36073443438BEYONCE HEAT 3.4 FL.OZ   25585 001199  000001000040239900125585
B36142235527BEYONCE SHIMMERING HEAT 325584 001199  000001000100239900125584
B10047500018BF 6FLVRS 24CT/10OZ DISPL27840 029439  000024000010222902427840
B08069295141BH HI VIS TPR MECHANICS G27830 001259  000001000020209900127830
B08069295111BH MECHANICS LTHR PALM GL27833 000659  000001000080109900127833
B00070330668BIC 8TIER PLST W/DJEP 36430044 043699  000414000010019941430044
B07033014367BIC ATLANTIS RETRACTABLE 26756 000159  000001000060025900126756
B07033031256BIC BRITE LINER HILTR YEL26754 000109  000001000070017900126754
B07033071380BIC COMFORT 3 SHAVERS 1pk14278 000089  000001000030019900114278
B07033070776BIC COMFORT TWIN SHAVERS 12167 000099  000001000060017900112167
B07033071396BIC COMFORT3 PIVOT WOMEN 14277 000099  000001000030018900114277
B07033068271BIC CRISTAL B/PEN BLK 10P18586 000199  000001000010033900118586
B07033090283BIC CRISTAL B/PEN BLK 2PK13298 000099  000001000100016900113298
B07033090282BIC CRISTAL B/PEN BLU 2PK13376 000099  000001000070016900113376
B07033068272BIC CRISTAL B/PEN BLUE 1018585 000209  000001000040034900118585
B07033090284BIC CRISTAL B/PEN RED 2PK18589 000069  000001000070012900118589
B07033066580BIC DJEEP D1 PREM BOLD 2428947 005799  000024000080042902428947
B07033066593BIC DJEEP D1 PREM ELEGANT28948 005799  000024000020042902428948
B07033066403BIC EZ RCH 2TIER 80CT SNO28030 017700  000080000070039908028030
B00070330660BIC EZ RCH 6TIER 320CT/3028028 033999  000320000100020032028028
Bxxx70330661BIC EZ REACH 6TIER 290CT 28234 031900  000290000030019929028234
B07033066166BIC EZ REACH 6TIER 290CT 28029 033999  000290000080020029028029
B07033065872BIC EZ REACH CLASSIC 20ct33193 019999  000020000060032902033193
B07033065872BIC EZ REACH CLASSIC 40CT27549 007049  000040000100032904027549
B07033065991BIC EZ RECH 4TIER 256CT 128027 026800  000256000020018925628027
B07033063923BIC FASHION LIGHTER TRAY-15519 007119  000050000060026905015519
B07033062240BIC FAVORITES LIGHTER TRA16005 007119  000050000070026905016005
B07033065123BIC HOLIDAY LIGHTER TRAY 22645 005399  000050000100021905022645
B07033064346BIC HOUSTON ROCKETS LIGtr15269 005999  000050000050029905015269
B00070330963BIC LIGHTER 4TIER DISPLY215796 016995  000200000010019920015796
B00070330644BIC LIGHTER 6TIER DSPLY 323568 028899  000330000020019933023568
B07033060499BIC LIGHTER AMERICAN #LCW15160 007119  000050000090026905015160
B07033061766BIC LIGHTER ASTROLOGY 50C13004 007119  000050000100026905013004
B07033062095BIC LIGHTER FLIC MY BIC 512173 007119  000050000030026905012173
B07033060459BIC LIGHTER GEOMETRICS 5014583 007119  000050000070026905014583
B07033063914BIC LIGHTER HUNTER SERIES22716 008799  000050000100029905022716
B07033245   BIC LIGHTER MINI 50+3 ct 23903 004799  000053000010017505323903
B07033245   BIC LIGHTER MINI 50CT    12171 003999  000050000080015905012171
B07033061050BIC LIGHTER NFL COWBOYS 512174 006699  000050000020027905012174
B07033060006BIC LIGHTER REGULAR 50+3C20988 005599  000053000040019905320988
B07033060006BIC LIGHTER REGULAR 50-CT12172 005599  000050000090019905012172
B07033064593BIC LIGHTER TEXAS SERIES 16041 007119  000050000030026905016041
B07033061853BIC LIGHTER TRIBAL TATTOO14275 006649  000050000100024905014275
B07033063325BIC LIGHTERS PLAYBOY 50CT12967 008799  000050000030029905012967
B07033065831BIC MARBLE SERIES LIGHTER26751 007049  000050000060025905026751
B07033031527BIC MARK-IT PERM.MARKER (12168 000179  000001000050029900112168
B07033091188BIC MECHANICAL PENCIL 5PK26755 000169  000001000100027900126755
B07033064332BIC MINI FASHION LIGHTER 20737 006249  000050000050022905020737
B00070330646BIC MIXED LTR4TIER BOHEMI22766 016995  000200000090017920022766
B07033060845BIC MULTI-PURPOSE LIGHTER21390 000399  000001000040072900121390
B07033064390BIC MUSIC LEGENDS LIGHTER15838 006599  000050000050027905015838
B30861257050BIC NORMAL SHAVERS - 5pk 15159 000129  000001000080021900115159
B30861257050BIC NORMAL SHAVERS 5PK   15116 000099  000001000020019900115116
B07033060882BIC OUTDOOR LIGHTER TRAY-14276 005609  000050000100021905014276
B07033065832BIC PARTY ANIMAL LIGHTER 26752 005899  000050000040021905026752
B07033020123BIC PEN ROUND STICK BLACK18588 000209  000001000080034900118588
B07033020122BIC ROUND STIC BLUE 10CT 18587 000149  000001000080021900118587
B07033091614BIC SILKY TOUCH 2PK      27679 000079  000001000100012900127679
B07033065828BIC STREET ART SERIES 50C26750 007049  000050000010025905026750
B07033062091BIC TEXANS LIGHTER TRAY- 13446 006599  000050000080027905013446
B07033064123BIC VACATION LIGHTER TRAY15161 007343  000050000040025905015161
B07033064389BIC WALKING DEAD LIGHTER 15469 006599  000050000040029905015469
B07033050307BIC WHITEOUTCORRECTFLUID014328 000109  000001000060021900114328
B07033064380BIC WRLD SERIS LIGHTR AST23288 008599  000050000020029905023288
B07385400106BICYCLE 5 COUNT DICE PLAY33311 000227  000001000090041900133311
B87641609143BICYCLE CABLE LOCK 3ft x 21681 000149  000001000100031900121681
B07385409864BICYCLE CITIES OF WORLD C33314 000654  000001000040118900133314
B07385409856BICYCLE HELLO KITY BLK&PK33313 000654  000001000060118900133313
B07385400088BICYCLE JUMBO INDEX      33307 000285  000001000060051900133307
B88549021340BICYCLE LOCK 3FT         28735 000199  000001000040033900128735
B07385401632BICYCLE PLAYING CARDS 12C12498 002699  000012000020043901212498
B07385400808BICYCLE STANDARD INDEX   33306 000285  000001000080051900133306
B07385409876BICYCLE STARS&STRIPES CAR33312 000523  000001000040095900133312
B65153612312BIDI STICK 6%-STARTER KIT26478 013200  000018000010129901826478
B72153501253BIDI STICK -ICY MANGO 6% 26473 007069  000010000060129901026473
B72153501249BIDI STICK -LUSH 6% ICE 126476 007069  000010000100129901026476
B72153501247BIDI STICK-BERRY BLAST 6%26467 007069  000010000050129901026467
B72153501250BIDI STICK-BLAZING VIBE 626468 007069  000010000060129901026468
B72153501251BIDI STICK-CHMP JUICE  6%26469 007069  000010000030129901026469
B72153501138BIDI STICK-CLASSIC TOB 6%26470 007069  000010000070129901026470
B72153501248BIDI STICK-DRAGON VENOM 626471 007069  000010000070129901026471
B72153501206BIDI STICK-FRUITY MANGO 626472 007069  000010000050129901026472
B72153501246BIDI STICK-JUNGLE JUICE 626474 007069  000010000090129901026474
B72153501252BIDI STICK-KICK START 6% 26475 007069  000010000070129901026475
B72153501203BIDI STICK-MINT FREEZE 6%26477 007069  000010000030129901026477
B07142101475BIG AZ ANGUS BURGR 8.82OZ28201 000348  000001000020062900128201
B07142111000BIG AZ FRIED CHKN SNWCH 128205 000319  000001000080057900128205
B07142100090BIG AZ RIB BBQ SNDWH 8.6O28206 000319  000001000030057900128206
B07142110622BIG AZ SPCY SNDWCH 10.21O28202 000323  000001000040058900128202
B79408025099BIG BUBA TX DUAL TORCH LI31911 000217  000001000040046900131911
B73904200743BIG BUCK EYE WEAR 36CT DI20940 003600  000036000050079903620940
B03000000408BIG CHEWY CHOC CHIP BAR 127162 000699  000010000050010101027162
B81712702702BIG DOG LF WRAP AMRTO CRM32051 002599  000001000050349900132051
B81712702701BIG DOG LF WRAP AROMATIC 32050 002599  000001000050349900132050
B81712702703BIG DOG LF WRAP DK LF PRM32052 002599  000001000020349900132052
B81712702733BIG DOG LF WRAP HONEY 8-532054 002599  000001000070349900132054
B81712702704BIG DOG LF WRAP NATURAL 832053 002599  000001000070349900132053
B81712702734BIG DOG LF WRAP ROSITA 8-32055 002599  000001000070349900132055
B81712702735BIG DOG LF WRAP VANILLA 832056 002599  000001000070349900132056
B04289766043BIG LEAGUE CHEW BASEBALL 29749 001499  000012000090021901229749
B04289766104BIG LEAGUE CHEW BAT W/GUM29748 004899  000012000080072901229748
B04289766146BIG LEAGUE CHEW BLU RSPBY29178 001499  000012000070022901229178
B04289766096BIG LEAGUE CHEW CTON CAND30894 001499  000012000060022901230894
B04289766001BIG LEAGUE CHEW GRAPE 12/12009 001499  000012000020022901212009
B04289766174BIG LEAGUE CHEW MINIS TGC29750 001799  000006000020054900629750
